:020000040800F2
:10000000C0C00020A10100089B1900083118000899
:1000100099190008ED020008B51B00080000000057
:100020000000000000000000000000009F19000810
:1000300021030008000000009D190008F1190008C4
:10004000BB010008BB010008BB010008BB010008A0
:10005000BB010008BB010008BB010008BB01000890
:10006000BB010008BB010008BB010008BB01000880
:10007000BB010008BB010008BB010008BB01000870
:10008000BB010008BB010008BB010008BB01000860
:10009000BB010008BB010008BB010008BB01000850
:1000A000BB010008BB010008BB010008BB01000840
:1000B000BB010008BB010008BB010008BB01000830
:1000C000BB010008BB010008BB010008BB01000820
:1000D000BB010008BB010008BB010008BB01000810
:1000E000BB010008BB010008BB010008BB01000800
:1000F000BB010008BB010008BB010008BB010008F0
:10010000BB010008BB010008BB010008BB010008DF
:10011000BB010008BB010008BB010008BB010008CF
:10012000BB010008BB010008BB010008BB010008BF
:10013000BB010008000000000000000015030008DB
:10014000F1020008FD02000809030008BB010008D5
:10015000BB010008BB010008BB010008BB0100088F
:10016000BB010008BB010008BB010008BB0100087F
:10017000BB010008BB0100080000000000000000F7
:10018000BB010008BB010008DFF810D000F09CF8AC
:1001900000480047491F0008AFF30080C0C000209E
:1001A0000648804706480047FEE7FEE7FEE7FEE711
:1001B000FEE7FEE7FEE7FEE7FEE7FEE78D1A000832
:1001C000890100082DE9F05F0546002092469B4614
:1001D00088460646814640241BE02846414647465D
:1001E000224600F061F853465A46C01A914110D396
:1001F00011461846224600F048F82D1A67EB010810
:100200004F4622460120002100F03FF817EB00097D
:100210004E41201EA4F10104DFDC484631462A4647
:100220004346BDE8F09F40EA01039B0703D009E085
:1002300008C9121F08C0042AFAD203E011F8013BD2
:1002400000F8013B521EF9D27047D2B201E000F82B
:10025000012B491EFBD270470022F6E710B513466A
:100260000A4604461946FFF7F0FF204610BD10B5B8
:100270004843044601F0E4FE002805D00021002C8C
:1002800002D0641E0155FAE710BD202A04DB203A93
:1002900000FA02F1002070479140C2F1200320FAD9
:1002A00003F3194390407047202A04DB203A21FAD7
:1002B00002F00021704721FA02F3D040C2F120027F
:1002C0009140084319467047064C074D06E0E06828
:1002D00040F0010394E8070098471034AC42F6D38D
:1002E000FFF756FFBC200008DC200008FEE70000F6
:1002F000014800F0F2BA000060000020014800F060
:10030000ECBA000060000020014800F0E6BA0000EE
:1003100060000020014800F0E0BA0000600000200A
:1003200070470022AFF3008030B50E4B0546012028
:100330005C7A002C14D1587A1C54587A03EB800054
:1003400045605D7A03F108002A54587A421C5A72BB
:10035000303008703A2048702F208870CC70002010
:1003600030BD0000B400002030B587B00C46054613
:1003700000F0D2FD0020009002200295CDE903405C
:1003800005A9684600F034FD044600F07DFD07B085
:10039000204630BD002229B101291AD002291BD0E4
:1003A0004FF440720E490B6823F440730B600B68E6
:1003B00013430B600A6822F0F8020A600A680223FD
:1003C00003EBC00002430A60086840F48030086014
:1003D00070474FF48072E5E74FF40072E2E70000E7
:1003E000103C02401348016889050FD5016821F4CB
:1003F00000710160016841F400610160016821F44D
:1004000000610160016841F4007101600168490503
:100410000FD5016821F480610160016841F48051C9
:100420000160016821F480510160016841F480613C
:1004300001607047003C024008490A6822F440729B
:100440000A600A6842F004020A600A684FF48033C6
:1004500043EA002002430A6070470000103C02405B
:1004600070B50C460B4906460025F220086030683E
:10047000A0420CD000F050FD22460023314602205D
:1004800000F00CFD05460228F6D000F0FDFC2846E1
:1004900070BD00000C3C0240064A136823F4407310
:1004A000136013681360136843F001031360017055
:1004B00070470000103C0240094910B50C6824F454
:1004C00040740C600C6844F440740C600C6844F098
:1004D00001040C600260BFF36F8F436010BD000029
:1004E000103C0240074A136823F4407313601368FA
:1004F00043F480731360136843F0010313600180B9
:1005000070470000103C0240074A136823F4407310
:100510001360136843F400731360136843F001031E
:100520001360016070470000103C024017490868E2
:10053000C206174805D5C26942F01002C2611022F6
:100540000A600A68920605D5C26942F00802C261D3
:1005500020220A600A68520605D5C26942F00402E8
:10056000C26140220A600A68120605D5C26942F0DB
:100570000202C26180220A600A68920705D5C26938
:1005800042F02002C2610220086070470C3C024029
:100590009400002070B5114904460020C86100F0A5
:1005A000CDFD06460E4D09E0601C07D024B100F0D9
:1005B000C5FD801BA04201D9032070BD2868C0037F
:1005C000F2D42868C00701D001202860286810F004
:1005D000F200F2D0FFF7AAFF012070BD94000020C6
:1005E0000C3C024090F82020012A07D0022A05D0B6
:1005F000416A41F4802141620120704700684269EC
:100600000A43426100207047F0B590F8205004681A
:10061000A468012D05D0022D03D0416A41F4802148
:100620005DE014F0406F01D1E50055D5C4F30164DD
:10063000022C03D9416A41F4000150E00125A54094
:100640001D608D684FF4C0739DB1CE6835434E6810
:1006500045EAC605066803EB0417F5514FF4C27569
:10066000076805EB04150E697E51097D012905D047
:1006700009E00E88CD6845EA4655EBE701684E591A
:1006800046F480764E511179D579567941EA056163
:1006900095792D0445EA062529434FF4C676056869
:1006A00006EB0416A9511178D57841EA05619578D1
:1006B00052782D0445EA022211434FF4C4750268B2
:1006C00005EB04155151006803EB0411425842F048
:1006D000010242500020F0BD416A41F40011416224
:1006E0000120F0BD10B590F82020012A07D0022A81
:1006F00005D0416A41F480214162012010BD3B4890
:10070000D0F8002242F00102C0F80022D0F8002206
:1007100022F47C52C0F80022D0F800224B6A42EA50
:100720000322C0F800220A7D02F01F0301229A4032
:10073000D0F81C329343C0F81C32CB69B3B9D0F85F
:100740000C329343C0F80C328C894B6864F31F431E
:100750004C6900EBC404C4F840320C890B6864F3A4
:100760001F434C6900EBC404C4F84432CB69012B2D
:1007700016D1D0F80C321343C0F80C320C884B68F9
:1007800064F31F434C6900EBC404C4F840320C8985
:10079000CB6864F31F434C6900EBC404C4F84432D3
:1007A0008B69002BD0F804320ED01343C0F804320A
:1007B0000B69002BD0F8143208D01343C0F8143260
:1007C000096A012904D008E09343EFE79343F5E772
:1007D000D0F81C121143C0F81C12D0F8001221F0FE
:1007E0000101C0F80012002010BD000000640040AC
:1007F000704730B590F82040012C05D0022C03D072
:10080000416A41F480215DE00468002955D02469E3
:10081000A40754D04FF4D874056804EB01142D5983
:1008200015F00405956005682D594ED0ED0855600A
:1008300005682C5904F00204D4604FF4DA7405689A
:1008400004EB01142D5905F00F05156105682D59AC
:10085000C5F30725956105682C59240C54614FF4A4
:10086000DC72046802EB0112A4581C700468A458DE
:10087000240A5C700468A458240C9C700468A25874
:10088000120EDA704FF4DE72046802EB0112A45803
:100890001C710468A458240A5C710468A458240CD0
:1008A0009C710468A258120EDA71006881B1016966
:1008B00041F020010161002030BDE468A8E7416AF1
:1008C00041F400114162012030BD6D0D1560AFE7AC
:1008D000C16841F02001C160EDE72DE9F05F0546F8
:1008E000006800244669D0F804908768D0F80CB0FE
:1008F000D0F810A0D0F81880F10748D0F90714D02C
:1009000001218160B80703D5284600F014FA0CE0F5
:10091000780702D54FF4006407E0380702D54FF49A
:10092000805402E0284600F005FAF80516D529683B
:100930004FF480708860B80503D5284600F0FEF9B2
:100940000CE0780502D544F4005407E0380502D5E0
:1009500044F4804402E0284600F0EFF9F80316D58D
:1009600029684FF480308860B80303D5284600F02A
:10097000E9F90CE0780302D544F4004407E03803B9
:1009800002D544F4803402E0284600F0D9F930075B
:1009900007D55FEACB6004D52968102044F40074C1
:1009A000C86070074FF0080707D55FEA0B7004D5E1
:1009B0002868C760284600F079F9B00706D528688E
:1009C000C068800702D0284600F072F9700607D58B
:1009D0005FEACA6004D52968102044F48064086185
:1009E000B00607D55FEA0A7004D528680761284673
:1009F00000F070F9F00606D528680069800702D07B
:100A0000284600F068F9B00308D55FEAC96005D54B
:100A1000296810204860284600F05FF9F00307D5E8
:100A20005FEA097004D528684760284600F0A2F9FB
:100A3000300446D55FEA497040D5F00504D55FEA39
:100A4000C87001D044F00104B00504D55FEA887095
:100A500001D544F00204700504D55FEA487001D561
:100A600044F00404300529D518F0700F26D008F0A2
:100A70007000402815D006DC102809D020280AD0A4
:100A8000302816D10AE050280ED0602811D10EE08F
:100A900044F008040DE044F010040AE044F020049F
:100AA00007E044F0400404E044F0800401E044F432
:100AB00080742868816921F07001816129680420AF
:100AC0004860002C05D0686A204368622846FFF71A
:100AD0008FFEBDE8F09F70B5040003D094F82000AD
:100AE00010B104E0012070BD204600F081F82068BC
:100AF000016821F00201016000F020FB0546052697
:100B000004E000F01BFB401B0A2811D82068406855
:100B10008007F6D42068016841F00101016000F00F
:100B20000DFB05460BE000F009FB401B0A2806D927
:100B3000606A40F40030606284F82060D2E7206888
:100B40004068C007EFD0207E0128206801683DD0B2
:100B500021F080010160607E01282068016838D0A2
:100B600021F040010160A07E01282068016833D097
:100B700021F020010160E07E0128206801682ED06C
:100B800041F010010160207F01282068016829D010
:100B900021F008010160607F01282068016824D0ED
:100BA00021F004010160D4E902010843D4E90412F0
:100BB000114308436168491E08432168C861002049
:100BC0006062012084F82000002070BD41F08001A7
:100BD000C0E741F04001C5E741F02001CAE721F03C
:100BE0001001CFE741F00801D4E741F00401D9E753
:100BF00010B586B0044614216846FFF72DFB28493E
:100C00002068884249D12748016841F0806101602D
:100C1000016801F080610591016841F00071016097
:100C2000006800F0007005901E481038016841F01F
:100C3000020101600068694600F0020005904FF46F
:100C40004050009012200190012002900320039058
:100C500009200490144800F075F9002203213F2078
:100C600000F00EFB3F2000F0FDFA002202214020A0
:100C700000F006FB402000F0F5FA0022022141209E
:100C800000F0FEFA412000F0EDFA0022032142209C
:100C900000F0F6FA422000F0E5FA06B010BD0000C0
:100CA00000680040403802400004024070470000E5
:100CB00000B58BB06A46002108ABFFF79AFD0448E7
:100CC000282269460068006800F0F2FF0BB000BD02
:100CD000400000207047FFF7EBBF704770B5044637
:100CE00090F82000012804D0606A40F4002060627F
:100CF00018E0022084F820002068016821F001013A
:100D0000016000F01BFA05460EE000BF00F016FA85
:100D1000401B0A2808D9606A40F400306062052050
:100D200084F82000012070BD20684068C007EDD124
:100D3000606270BD704700F005B8704700F002B8FF
:100D400070470000094800B5006889B0202240685B
:100D5000694600F097FF002805D008AB69460448B3
:100D600006AAFFF751FC09B000BD000040000020BA
:100D700060000020704730B50223437103689C680F
:100D800044F001049C60002304E0056851F823400E
:100D90002C605B1C9342F8D3016809680122427100
:100DA000084630BD10B5040002D0607910B106E0ED
:100DB000012010BD00202071204600F005F8012020
:100DC0006071002010BD000008B500680649884227
:100DD00008D10648016841F480510160006800F4C0
:100DE0008050009008BD00000030024030380240C2
:100DF0002DE9F047044622480F46017E01290AD01A
:100E00000121804601764CF250394846FFF7C2FB7B
:100E1000020003D02FE00220BDE8F0874FF0FF3042
:100E200038602068174D012801D0A6681CE0207C9E
:100E30006168FFF701FB4846FFF7ACFB02462868F4
:100E400020F00400286014E0217C3046FFF7A2FA6D
:100E50004846FFF79FFB0200286820F0FA00286050
:100E600001D03E6005E0761CD4E902100844B0428F
:100E7000EAD8FFF7B7FA002188F818101046CBE738
:100E800094000020103C02400348016841F00041FA
:100E90000160002070470000103C02402DE9F0473F
:100EA0001B4E05461446307E1F468946012808D051
:100EB000012030764CF250384046FFF76BFB18B1FA
:100EC00014E00220BDE8F0879DB1012D16D0022D5F
:100ED00019D022463B464846FFF7EEFA4046FFF758
:100EE00059FB0C490A6822F001020A6000213176A0
:100EF000E8E7E1B24846FFF7CFFAEFE7A1B248468C
:100F0000FFF7F0FAEAE721464846FFF7FDFAE5E782
:100F100094000020103C0240074900200A68002A83
:100F200009DA054A054B0C3A1360054B1360096852
:100F3000002900DA01207047103C02402301674578
:100F4000AB89EFCD2DE9F84FDFF8B8A100220125DC
:100F50000AF1040B03264FF00F090BF1040E00BF3A
:100F60000B6805FA02F42340A3426FD10F7907F012
:100F70000307012F01D0022F16D187684FEA4208DC
:100F800006FA08FC27EA0C07D1F80CC00CFA08FC9A
:100F90004CEA070CC0F808C04768A7430C79C4F3B3
:100FA000001494403C4344600C79E443A4070AD005
:100FB000C4684FEA420C06FA0CF7BC438F6807FA84
:100FC0000CF72743C7600C7904F00304022C12D1FC
:100FD000D40800EB840CDCF820405707FF0E09FA18
:100FE00007F824EA0804D1F8108008FA07F848EA5C
:100FF0000408CCF8208004684FEA420C06FA0CF78B
:10100000BC430F7907F0030707FA0CF72743076083
:101010004C68E40070D53C4C276847F48047276053
:10102000246822F0030704F480440094374C07EB53
:10103000040CDCF8084897074FEA177809FA08F714
:10104000BC43334FB84202D1002724E054E0314F73
:10105000B84201D101271EE02F4FB84201D102272B
:1010600019E02E4FB84201D1032714E02C4FB842AB
:1010700001D104270FE02B4FB84201D105270AE028
:10108000294FB84201D1062705E0284FB84201D1C7
:10109000072700E0082707FA08F72743CCF8087865
:1010A000DAF800405746D1F804C09C435FEACC3CD4
:1010B00000D51C433C60DBF800405F46D1F804C01B
:1010C0009C435FEA8C3C00D51C433C60DEF800404A
:1010D0007746D1F804C09C435FEACC2C00D51C4372
:1010E0003C60084F0C373C68D1F804C09C435FEA71
:1010F0008C2C00D51C433C60521C102AFFF430AFEE
:10110000BDE8F88F003C0140443802400030014007
:10111000000002400004024000080240000C0240AF
:10112000001002400014024000180240001C02405F
:101130000AB1816170470904FBE70000014880683B
:10114000704700002C00002070B5040011D0216809
:101150004CF6CC400860216845F255500860D4E94F
:10116000000141602168A0688860FFF7E7FF05463D
:101170000DE0012070BD00BFFFF7E0FF401B3028ED
:1011800005D92068C068800701D0032070BD2068A1
:10119000C0688007F0D121684AF6AA2008600020C4
:1011A00070BD00684AF6AA21016000207047000067
:1011B0000248816802781144816070472C00002049
:1011C0000B4810B5016841F400710160016841F4F9
:1011D00080610160016841F480710160032000F0CA
:1011E0006FF8032000F006F800F024F8002010BD8E
:1011F000003C024070B50D4D04464FF47A712878DA
:10120000B1FBF0F00A490968B1FBF0F000F0FCFA1C
:1012100048B9102C07D200222146501E00F030F8A9
:1012200000206C6070BD012070BD00002C0000200B
:10123000380000200A4808B5016841F48041016087
:10124000006800F4804000900548001F016841F0EC
:1012500080510160006800F08050009008BD0000DF
:1012600044380240002809DB00F01F0201219140B0
:101270004009800000F1E020C0F800117047000034
:10128000F0B40E4B1B680C46C3F30223C3F10705F1
:10129000042D00D90425191D072901D2002300E0DF
:1012A000DB1E012606FA05F1491E214099409E40A9
:1012B000761E16403143F0BC00F088BC0CED00E017
:1012C000064900F0070208684FF6FF03184040EA9D
:1012D0000220034A10430860704700000CED00E054
:1012E0000000FA05BFF34F8F05480168054A01F475
:1012F000E06111430160BFF34F8F00BFFDE70000C5
:101300000CED00E00400FA052DE9F0470E4605005B
:1013100065D0DFF81481D8F80000F7B200F00700BC
:10132000B04207D288F80070D8F8000000F007003B
:10133000B04254D128683D4C810712D5400703D5EF
:10134000206840F4E05020602878000703D520682A
:1013500040F4604020602068A96820F0F000084355
:1013600020602878C0072DD03049686808390128E6
:1013700012D0022813D0032811D009688907002948
:101380002DDA216821F0030101432160FFF7D6FE29
:10139000814641F2883A0EE009688903EFE709685F
:1013A0008901ECE7FFF7CAFEA0EB0901514502D91C
:1013B0000320BDE8F0872068696800F00C00B0EBFE
:1013C000810FEFD1D8F80010404601F00701B1427B
:1013D00007D90770006800F00700B04201D0012073
:1013E000E7E72878400705D52068E96820F4E05051
:1013F000084320602878000706D52068296920F472
:10140000604040EAC100206000F018F82168084AF6
:10141000C1F30311515CC8400649086006480068E2
:10142000FFF7E8FE0020C4E7003C02400838024015
:10143000AC2000083800002030000020154810B50E
:10144000006810F00C02144813D04110042A0FD089
:10145000082A0ED10F4C241F2268236802F03F0295
:101460005B0207D52068C0F38810A0FB010106E0ED
:10147000084610BD2168C1F38811A1FB00010023BB
:10148000FEF7A0FE2168C1F30141491C4900B0FBF1
:10149000F1F010BD083802400024F4002DE9F84FA7
:1014A00004006ED02078DFF84C93C007A9F1040542
:1014B0004AD009F104000168C1F38101012908D073
:1014C0000068C0F3810002280AD1D9F80000400268
:1014D00006D52868800337D560680028E1D033E05E
:1014E0006068B0F5803F10D0B0F5A02F286810D00C
:1014F00020F480302860286820F48020286060680C
:10150000A8B1FFF71BFE06460DE0286840F48030C6
:10151000F4E740F480202860F7E700BFFFF70EFEF5
:10152000801B642873D828688003F7D50CE0FFF788
:1015300005FE064605E000BFFFF700FE801B64289D
:10154000F0D828688003F7D42078DFF8AC828007D1
:101550004FF0000A3ED5A748001D016811F00C0F9E
:1015600008D00068C0F3810002280BD1D9F8000030
:10157000400207D42868800716D5E068012800D10A
:1015800012E033E1E068B8B10120C8F80000FFF7CD
:10159000D5FD064605E000BFFFF7D0FD801B022801
:1015A000C0D828688007F7D52868216920F0F8009E
:1015B00040EAC10028600DE0C8F800A0FFF7BEFDBA
:1015C000064604E0FFF7BAFD801B02281FD82868F2
:1015D0008007F7D42078000722D5864F87486169B5
:1015E000703771B101210160FFF7A8FD064604E0E4
:1015F000FFF7A4FD801B022809D838688007F7D5BB
:101600000EE0C0F800A0FFF799FD064605E082E075
:10161000FFF794FD801B02287DD838688007F7D437
:101620002078400768D5DFF8CCB100270BF13C0BE0
:10163000DBF80000C0000BD4DBF8001041F0805153
:10164000CBF80010DBF80000012700F0805000907C
:101650006B4E3068C00510D4306840F48070306044
:10166000FFF76CFD009005E0FFF768FD0099401A58
:10167000022850D83068C005F6D55E4EA0686C369A
:1016800001280FD00528306810D020F0010030600C
:10169000306820F004003060A068B8B1FFF74EFD5C
:1016A00000900FE0306840F00100F4E740F00400E3
:1016B0003060F7E7FFF742FD0099411A41F28830A8
:1016C000814266D830688007F4D50EE0FFF736FD1A
:1016D000009007E0FFF732FD0099411A41F288308F
:1016E000814256D830688007F4D42FB1DBF800105F
:1016F00021F08051CBF80010A069C8B33D49091D05
:101700000968C1F3810102294AD00228504607D056
:10171000C8F8600000E03CE0FFF710FD04463BE045
:101720004746C8F86000FFF709FD064605E000BF20
:10173000FFF704FD801B02282BD828688001F7D40E
:10174000D4E907010843A16A2E4A490802EB014186
:10175000626A41EA8211084394F82C1040EA016160
:10176000C9F8001001203866FFF7E8FC044606E0DF
:101770003EE000BFFFF7E2FC001B022809D8286802
:101780008001F7D534E000BFFFF7D8FC001B02282A
:1017900002D90320BDE8F88F28688001F4D427E03F
:1017A0000128F7D0D9F80000E26900F480019142E5
:1017B0001CD1226A00F03F01914217D147F6C07157
:1017C000626A0140B1EB821F10D1A26A4FF0FF3371
:1017D00000F4403103EB5202B1EB024F06D194F812
:1017E0002C1000F07060B0EB016F01D00120D1E748
:1017F0000020CFE70438024000004742800E4742F5
:10180000007000400000FFFF10B5401EB0F1807F67
:1018100001D3012010BD4FF0E02460610F2160175B
:1018200000F0D4F90020A06107202061002010BD45
:10183000FEE700000F4810B50D4901600621416028
:1018400000214FF420228160C0E903124FF480127E
:1018500042610176012242768176C2760177427733
:10186000FFF739F9002801D072B6FEE710BD00007D
:101870000068004060000020064910B50448086078
:101880000846FFF78FFA002801D072B6FEE710BDB8
:10189000003002400400002010B504490448FEF75F
:1018A00040FD0249491E087010BD000025000020BF
:1018B00010000020F0B587B014216846FEF7CCFC7C
:1018C00028480024016841F004010160016801F02A
:1018D00004010591016841F080010160016801F097
:1018E00080010591016841F00201016000681E4D10
:1018F00000F002004FF44046059001223146284690
:10190000FFF716FC194F002231463846FFF710FC4E
:1019100000961126CDE90164694628460394FFF735
:1019200011FBE814009002200125CDE901050320F8
:10193000CDE9030569463846FFF704FBA80300908C
:10194000CDE90154694638460394FFF7FBFAE803F2
:101950000090CDE90164694638460394FFF7F2FA36
:1019600007B0F0BD303802400008024000040240D9
:10197000084810B506490160032141604FF47A61BF
:101980008160FFF7E1FB002801D072B6FEE710BDD1
:101990000030004088000020FEE7FEE770477047F7
:1019A00070B58AB00E460446154620216846FEF7FB
:1019B00053FC0094049506AC2EB125B12A4631465D
:1019C0002046FEF730FC08AB224669460648FEF783
:1019D0001BFE002806D005482022694600684068A2
:1019E00000F066F90AB070BD6000002040000020E1
:1019F000FFF7DEBB30B593B030216846FEF72CFC14
:101A000014210CA8FEF728FC1E480025016841F0AF
:101A100080510160006800F0805011901A48016800
:101A200041F4804101600068022400F4804011907C
:101A3000092000904FF4803001900120CDE9050489
:101A400080050790082008904FF4A870CDE909049C
:101A500007200B906846FFF721FD08B172B6FEE73C
:101A60000CA90F2081E831004FF4A0500F90109086
:101A700005210CA8FFF748FC002801D072B6FEE74C
:101A800013B030BD40380240007000400248016889
:101A900041F470010160704788ED00E002480021C8
:101AA00001700078704700000C00002039B1012956
:101AB00007D0022908D0032909D00420704700204C
:101AC000704740F2F64004E04FF4007001E04FF43C
:101AD00000301060F3E70000F0B40025114C124E06
:101AE00006E0974200D1254604F50174B44204DAB9
:101AF000D4F80072B7F1FF3FF3D1B44202DB01200A
:101B0000F0BC704705B12C46002540CC6D1CF64357
:101B100040C1802DF9DB5B1E02D0F0BC521CDBE71C
:101B20000020EDE70000040800000E080248002134
:101B300001700078704700000C0000202DE9F0478C
:101B4000164698468146194D194A06E0954202DB31
:101B50000120BDE8F08705F50175D5F80002401CAD
:101B6000F4D10C4604CCD2B180280FDA0C46002701
:101B70002068C1432846FEF773FC241D2D1D7F1CE1
:101B8000802FF5DB31462846FEF76AFCB8F10103E9
:101B900009D0721C21464846BDE8F047CEE7401CFC
:101BA0008028DFDBF2E70020D3E700000000040814
:101BB00000000E08FEE7000010B50348FFF7F1FA39
:101BC000AFF20B0010BD0000880000200907090ECD
:101BD000002804DB00F1E02080F80014704700F0DA
:101BE0000F0000F1E02080F8141D704708B50021B7
:101BF00000910122694600F045F808B1009808BD3F
:101C00004FF0FF3008BD03B5012201A900F050F8E4
:101C1000012802D04FF0FF300CBD01980CBD02E04E
:101C200008C8121F08C1002AFAD170477047002067
:101C300001E001C1121F002AFBD17047002804D027
:101C4000D0E901128A4201D8881A7047C068801A08
:101C50000844704770B5051E12DD10210120FEF703
:101C600006FB04000CD001212846FEF700FBA06013
:101C70006060E56020600028204602D100F03CF959
:101C8000002070BD70B50024836809E013F8015B83
:101C90000D55C6680568641C2E449E4200D12B4633
:101CA000521E02D345689D42F0D18360204670BD2C
:101CB000F0B5174604460D4600264368FFF7BEFF01
:101CC000E168081AB8420CDC0020F0BD15F8010BE1
:101CD00003F8010BE16820680144994200D10346F2
:101CE000761CBE42F2DB30466360F0BD70B50D4637
:101CF000064618210120FEF7BAFA041E14D03EB1A0
:101D00003046FFF7A7FF0949E160206000280BD0AB
:101D10003DB12846FFF79EFF05492161606000281C
:101D200002D000206061204670BD0000ED1B00085D
:101D3000071C0008F8B507461C4615460E46142039
:101D400000F07EF90090A0B107600461C0E9016570
:101D5000FFF7F4F920440099074CC860206820B9C7
:101D60004FF42060FFF776FF206004226946FFF7FA
:101D70009FFF0098F8BD00003C00002038B5134CD0
:101D8000002000902068E0B104226946FFF77AFF46
:101D9000B8B10098A8B1FFF7D1F90099CA6890428C
:101DA0000AD30A687AB14868904760B1FFF7C6F96C
:101DB00000990A691044C860042269462068FFF748
:101DC00077FF009838BD002038BD00003C0000209F
:101DD00070B50E4D8AB040016C6804F10E06641CAB
:101DE00005966C60002400904801079402900694C8
:101DF000500101905801CDE903040120CDE9080408
:101E000069460348FEF76EFC0AB070BD4000002032
:101E10006000002030B5314C8BB004F11005206813
:101E200098B1006828226946FFF72CFF002850D09F
:101E30002B49002008600098A038082849D2DFE824
:101E400000F023262C2F484848424FF448600146B2
:101E5000FFF74CFF4FF4FE61A02220600B461046B6
:101E6000FFF7B6FF02211F48FEF7BCFB01211D480A
:101E7000FEF7B8FB1B48FEF731FF03221A491B4847
:101E8000FEF779FF686024E0FFF72CFA21E00121DA
:101E90000898FEF769FA286015E00898A06018E035
:101EA000286820B90899A068FEF7DAFA2860A068C7
:101EB000001DA060296819B90999FEF7D1FA2860B8
:101EC000A068001DA060054908221031A420FFF77A
:101ED00067FDAFF2BF000BB030BD00004000002036
:101EE0000000002060000020107AFF1F0400002086
:101EF000AFF203007047000010B5002821D0114B4D
:101F00000022001F196803E0814203D80A4649688D
:101F10000029F9D152B11368841A9C4204D1006897
:101F200018441060104602E0506000E0186039B1BB
:101F300002680B1A934203D10B681A440260496885
:101F4000416010BD580000202E4D26E02E4C206828
:101F500030B9606820B9A06810B9E06800284ED098
:101F6000FFF78AFC032221462848FEF704FFE168B8
:101F7000884215D1D4E900122448FEF7FCFEA1687E
:101F800088420DD1D4F80040FFF7F2FC20480460ED
:101F9000206880F30888606880472868C000D5D42E
:101FA000FFF70EF9FFF726FDFFF784FCFFF774FC3F
:101FB000FFF740FCFFF760FCFFF7DAFC002315A2F7
:101FC00019461648FFF7B6FE002315A21946164813
:101FD000FFF7B0FE642315A200211748FFF7AAFE01
:101FE0000A4C241FFFF7CAFE20680028FAD0FFF72A
:101FF000A5F821688842F5D9FFF774F9F2E70F4C8C
:10200000C2E70000743802400040000804000020CD
:1020100008ED00E063616E5478000000F11E0008D6
:1020200063616E5278000000151E000877617463CA
:1020300068646F6700000000B91B0008008000089A
:10204000F0B50B30154D20F007010024144A0FE0C5
:1020500003688B420BD38B4205D95E1A431847683D
:10206000C3E9006700E04368136002C004E0021D9A
:1020700010680028ECD12046002802D1286808B159
:102080000020F0BD064A07481060074A121A22F0E5
:102090000702C0E9002401202860D7E75C00002087
:1020A00058000020C4000020C08000200000000074
:1020B000000000000102030406070809DC200008F4
:1020C00000000020600000001E1C00083C210008E9
:1020D0006000002060C000002E1C0008B80B00004B
:1020E0000000000000000000010000009D1A000830
:1020F0002D1B0008D91A00083D1B0008AD1A000866
:1021000000000000000000000100000010000000BE
:10211000000000000024F4000000000000000000A7
:1021200000000000000000000000000000000000AF
:0C213000000000000000000000000000A3
:040000050800018965
:00000001FF
