:020000040800F2
:10000000F8C00020A10100089B1900083118000861
:1000100099190008ED020008B51B00080000000057
:100020000000000000000000000000009F19000810
:1000300021030008000000009D190008F1190008C4
:10004000BB010008BB010008BB010008BB010008A0
:10005000BB010008BB010008BB010008BB01000890
:10006000BB010008BB010008BB010008BB01000880
:10007000BB010008BB010008BB010008BB01000870
:10008000BB010008BB010008BB010008BB01000860
:10009000BB010008BB010008BB010008BB01000850
:1000A000BB010008BB010008BB010008BB01000840
:1000B000BB010008BB010008BB010008BB01000830
:1000C000BB010008BB010008BB010008BB01000820
:1000D000BB010008BB010008BB010008BB01000810
:1000E000BB010008BB010008BB010008BB01000800
:1000F000BB010008BB010008BB010008BB010008F0
:10010000BB010008BB010008BB010008BB010008DF
:10011000BB010008BB010008BB010008BB010008CF
:10012000BB010008BB010008BB010008BB010008BF
:10013000BB010008000000000000000015030008DB
:10014000F1020008FD02000809030008BB010008D5
:10015000BB010008BB010008BB010008BB0100088F
:10016000BB010008BB010008BB010008BB0100087F
:10017000BB010008BB0100080000000000000000F7
:10018000BB010008BB010008DFF810D000F09CF8AC
:100190000048004725340008AFF30080F8C0002075
:1001A0000648804706480047FEE7FEE7FEE7FEE711
:1001B000FEE7FEE7FEE7FEE7FEE7FEE78D1A000832
:1001C000890100082DE9F05F0546002092469B4614
:1001D00088460646814640241BE02846414647465D
:1001E000224600F061F853465A46C01A914110D396
:1001F00011461846224600F048F82D1A67EB010810
:100200004F4622460120002100F03FF817EB00097D
:100210004E41201EA4F10104DFDC484631462A4647
:100220004346BDE8F09F40EA01039B0703D009E085
:1002300008C9121F08C0042AFAD203E011F8013BD2
:1002400000F8013B521EF9D27047D2B201E000F82B
:10025000012B491EFBD270470022F6E710B513466A
:100260000A4604461946FFF7F0FF204610BD10B5B8
:100270004843044603F054F9002805D00021002C1F
:1002800002D0641E0155FAE710BD202A04DB203A93
:1002900000FA02F1002070479140C2F1200320FAD9
:1002A00003F3194390407047202A04DB203A21FAD7
:1002B00002F00021704721FA02F3D040C2F120027F
:1002C0009140084319467047064C074D06E0E06828
:1002D00040F0010394E8070098471034AC42F6D38D
:1002E000FFF756FF203D0008403D0008FEE70000F4
:1002F000014800F0F2BA000068000020014800F058
:10030000ECBA000068000020014800F0E6BA0000E6
:1003100068000020014800F0E0BA000068000020FA
:1003200070470022AFF3008030B50E4B0546012028
:100330005C7A002C14D1587A1C54587A03EB800054
:1003400045605D7A03F108002A54587A421C5A72BB
:10035000303008703A2048702F208870CC70002010
:1003600030BD0000EC00002030B587B00C460546DB
:1003700000F0D2FD0020009002200295CDE903405C
:1003800005A9684600F034FD044600F07DFD07B085
:10039000204630BD002229B101291AD002291BD0E4
:1003A0004FF440720E490B6823F440730B600B68E6
:1003B00013430B600A6822F0F8020A600A680223FD
:1003C00003EBC00002430A60086840F48030086014
:1003D00070474FF48072E5E74FF40072E2E70000E7
:1003E000103C02401348016889050FD5016821F4CB
:1003F00000710160016841F400610160016821F44D
:1004000000610160016841F4007101600168490503
:100410000FD5016821F480610160016841F48051C9
:100420000160016821F480510160016841F480613C
:1004300001607047003C024008490A6822F440729B
:100440000A600A6842F004020A600A684FF48033C6
:1004500043EA002002430A6070470000103C02405B
:1004600070B50C460B4906460025F220086030683E
:10047000A0420CD000F050FD22460023314602205D
:1004800000F00CFD05460228F6D000F0FDFC2846E1
:1004900070BD00000C3C0240064A136823F4407310
:1004A000136013681360136843F001031360017055
:1004B00070470000103C0240094910B50C6824F454
:1004C00040740C600C6844F440740C600C6844F098
:1004D00001040C600260BFF36F8F436010BD000029
:1004E000103C0240074A136823F4407313601368FA
:1004F00043F480731360136843F0010313600180B9
:1005000070470000103C0240074A136823F4407310
:100510001360136843F400731360136843F001031E
:100520001360016070470000103C024017490868E2
:10053000C206174805D5C26942F01002C2611022F6
:100540000A600A68920605D5C26942F00802C261D3
:1005500020220A600A68520605D5C26942F00402E8
:10056000C26140220A600A68120605D5C26942F0DB
:100570000202C26180220A600A68920705D5C26938
:1005800042F02002C2610220086070470C3C024029
:100590009C00002070B5114904460020C86100F09D
:1005A000CDFD06460E4D09E0601C07D024B100F0D9
:1005B000C5FD801BA04201D9032070BD2868C0037F
:1005C000F2D42868C00701D001202860286810F004
:1005D000F200F2D0FFF7AAFF012070BD9C000020BE
:1005E0000C3C024090F82020012A07D0022A05D0B6
:1005F000416A41F4802141620120704700684269EC
:100600000A43426100207047F0B590F8205004681A
:10061000A468012D05D0022D03D0416A41F4802148
:100620005DE014F0406F01D1E50055D5C4F30164DD
:10063000022C03D9416A41F4000150E00125A54094
:100640001D608D684FF4C0739DB1CE6835434E6810
:1006500045EAC605066803EB0417F5514FF4C27569
:10066000076805EB04150E697E51097D012905D047
:1006700009E00E88CD6845EA4655EBE701684E591A
:1006800046F480764E511179D579567941EA056163
:1006900095792D0445EA062529434FF4C676056869
:1006A00006EB0416A9511178D57841EA05619578D1
:1006B00052782D0445EA022211434FF4C4750268B2
:1006C00005EB04155151006803EB0411425842F048
:1006D000010242500020F0BD416A41F40011416224
:1006E0000120F0BD10B590F82020012A07D0022A81
:1006F00005D0416A41F480214162012010BD3B4890
:10070000D0F8002242F00102C0F80022D0F8002206
:1007100022F47C52C0F80022D0F800224B6A42EA50
:100720000322C0F800220A7D02F01F0301229A4032
:10073000D0F81C329343C0F81C32CB69B3B9D0F85F
:100740000C329343C0F80C328C894B6864F31F431E
:100750004C6900EBC404C4F840320C890B6864F3A4
:100760001F434C6900EBC404C4F84432CB69012B2D
:1007700016D1D0F80C321343C0F80C320C884B68F9
:1007800064F31F434C6900EBC404C4F840320C8985
:10079000CB6864F31F434C6900EBC404C4F84432D3
:1007A0008B69002BD0F804320ED01343C0F804320A
:1007B0000B69002BD0F8143208D01343C0F8143260
:1007C000096A012904D008E09343EFE79343F5E772
:1007D000D0F81C121143C0F81C12D0F8001221F0FE
:1007E0000101C0F80012002010BD000000640040AC
:1007F000704730B590F82040012C05D0022C03D072
:10080000416A41F480215DE00468002955D02469E3
:10081000A40754D04FF4D874056804EB01142D5983
:1008200015F00405956005682D594ED0ED0855600A
:1008300005682C5904F00204D4604FF4DA7405689A
:1008400004EB01142D5905F00F05156105682D59AC
:10085000C5F30725956105682C59240C54614FF4A4
:10086000DC72046802EB0112A4581C700468A458DE
:10087000240A5C700468A458240C9C700468A25874
:10088000120EDA704FF4DE72046802EB0112A45803
:100890001C710468A458240A5C710468A458240CD0
:1008A0009C710468A258120EDA71006881B1016966
:1008B00041F020010161002030BDE468A8E7416AF1
:1008C00041F400114162012030BD6D0D1560AFE7AC
:1008D000C16841F02001C160EDE72DE9F05F0546F8
:1008E000006800244669D0F804908768D0F80CB0FE
:1008F000D0F810A0D0F81880F10748D0F90714D02C
:1009000001218160B80703D5284600F014FA0CE0F5
:10091000780702D54FF4006407E0380702D54FF49A
:10092000805402E0284600F005FAF80516D529683B
:100930004FF480708860B80503D5284600F0FEF9B2
:100940000CE0780502D544F4005407E0380502D5E0
:1009500044F4804402E0284600F0EFF9F80316D58D
:1009600029684FF480308860B80303D5284600F02A
:10097000E9F90CE0780302D544F4004407E03803B9
:1009800002D544F4803402E0284600F0D9F930075B
:1009900007D55FEACB6004D52968102044F40074C1
:1009A000C86070074FF0080707D55FEA0B7004D5E1
:1009B0002868C760284600F079F9B00706D528688E
:1009C000C068800702D0284600F072F9700607D58B
:1009D0005FEACA6004D52968102044F48064086185
:1009E000B00607D55FEA0A7004D528680761284673
:1009F00000F070F9F00606D528680069800702D07B
:100A0000284600F068F9B00308D55FEAC96005D54B
:100A1000296810204860284600F05FF9F00307D5E8
:100A20005FEA097004D528684760284600F0A2F9FB
:100A3000300446D55FEA497040D5F00504D55FEA39
:100A4000C87001D044F00104B00504D55FEA887095
:100A500001D544F00204700504D55FEA487001D561
:100A600044F00404300529D518F0700F26D008F0A2
:100A70007000402815D006DC102809D020280AD0A4
:100A8000302816D10AE050280ED0602811D10EE08F
:100A900044F008040DE044F010040AE044F020049F
:100AA00007E044F0400404E044F0800401E044F432
:100AB00080742868816921F07001816129680420AF
:100AC0004860002C05D0686A204368622846FFF71A
:100AD0008FFEBDE8F09F70B5040003D094F82000AD
:100AE00010B104E0012070BD204600F081F82068BC
:100AF000016821F00201016000F020FB0546052697
:100B000004E000F01BFB401B0A2811D82068406855
:100B10008007F6D42068016841F00101016000F00F
:100B20000DFB05460BE000F009FB401B0A2806D927
:100B3000606A40F40030606284F82060D2E7206888
:100B40004068C007EFD0207E0128206801683DD0B2
:100B500021F080010160607E01282068016838D0A2
:100B600021F040010160A07E01282068016833D097
:100B700021F020010160E07E0128206801682ED06C
:100B800041F010010160207F01282068016829D010
:100B900021F008010160607F01282068016824D0ED
:100BA00021F004010160D4E902010843D4E90412F0
:100BB000114308436168491E08432168C861002049
:100BC0006062012084F82000002070BD41F08001A7
:100BD000C0E741F04001C5E741F02001CAE721F03C
:100BE0001001CFE741F00801D4E741F00401D9E753
:100BF00010B586B0044614216846FFF72DFB28493E
:100C00002068884249D12748016841F0806101602D
:100C1000016801F080610591016841F00071016097
:100C2000006800F0007005901E481038016841F01F
:100C3000020101600068694600F0020005904FF46F
:100C40004050009012200190012002900320039058
:100C500009200490144800F075F9002203213F2078
:100C600000F00EFB3F2000F0FDFA002202214020A0
:100C700000F006FB402000F0F5FA0022022141209E
:100C800000F0FEFA412000F0EDFA0022032142209C
:100C900000F0F6FA422000F0E5FA06B010BD0000C0
:100CA00000680040403802400004024070470000E5
:100CB00000B58BB06A46002108ABFFF79AFD0448E7
:100CC000282269460068006800F0F2FF0BB000BD02
:100CD000480000207047FFF7EBBF704770B504462F
:100CE00090F82000012804D0606A40F4002060627F
:100CF00018E0022084F820002068016821F001013A
:100D0000016000F01BFA05460EE000BF00F016FA85
:100D1000401B0A2808D9606A40F400306062052050
:100D200084F82000012070BD20684068C007EDD124
:100D3000606270BD704700F005B8704700F002B8FF
:100D400070470000094800B5006889B0202240685B
:100D5000694600F097FF002805D008AB69460448B3
:100D600006AAFFF751FC09B000BD000048000020B2
:100D700068000020704730B50223437103689C6807
:100D800044F001049C60002304E0056851F823400E
:100D90002C605B1C9342F8D3016809680122427100
:100DA000084630BD10B5040002D0607910B106E0ED
:100DB000012010BD00202071204600F005F8012020
:100DC0006071002010BD000008B500680649884227
:100DD00008D10648016841F480510160006800F4C0
:100DE0008050009008BD00000030024030380240C2
:100DF0002DE9F047044622480F46017E01290AD01A
:100E00000121804601764CF250394846FFF7C2FB7B
:100E1000020003D02FE00220BDE8F0874FF0FF3042
:100E200038602068174D012801D0A6681CE0207C9E
:100E30006168FFF701FB4846FFF7ACFB02462868F4
:100E400020F00400286014E0217C3046FFF7A2FA6D
:100E50004846FFF79FFB0200286820F0FA00286050
:100E600001D03E6005E0761CD4E902100844B0428F
:100E7000EAD8FFF7B7FA002188F818101046CBE738
:100E80009C000020103C02400348016841F00041F2
:100E90000160002070470000103C02402DE9F0473F
:100EA0001B4E05461446307E1F468946012808D051
:100EB000012030764CF250384046FFF76BFB18B1FA
:100EC00014E00220BDE8F0879DB1012D16D0022D5F
:100ED00019D022463B464846FFF7EEFA4046FFF758
:100EE00059FB0C490A6822F001020A6000213176A0
:100EF000E8E7E1B24846FFF7CFFAEFE7A1B248468C
:100F0000FFF7F0FAEAE721464846FFF7FDFAE5E782
:100F10009C000020103C0240074900200A68002A7B
:100F200009DA054A054B0C3A1360054B1360096852
:100F3000002900DA01207047103C02402301674578
:100F4000AB89EFCD2DE9F84FDFF8B8A100220125DC
:100F50000AF1040B03264FF00F090BF1040E00BF3A
:100F60000B6805FA02F42340A3426FD10F7907F012
:100F70000307012F01D0022F16D187684FEA4208DC
:100F800006FA08FC27EA0C07D1F80CC00CFA08FC9A
:100F90004CEA070CC0F808C04768A7430C79C4F3B3
:100FA000001494403C4344600C79E443A4070AD005
:100FB000C4684FEA420C06FA0CF7BC438F6807FA84
:100FC0000CF72743C7600C7904F00304022C12D1FC
:100FD000D40800EB840CDCF820405707FF0E09FA18
:100FE00007F824EA0804D1F8108008FA07F848EA5C
:100FF0000408CCF8208004684FEA420C06FA0CF78B
:10100000BC430F7907F0030707FA0CF72743076083
:101010004C68E40070D53C4C276847F48047276053
:10102000246822F0030704F480440094374C07EB53
:10103000040CDCF8084897074FEA177809FA08F714
:10104000BC43334FB84202D1002724E054E0314F73
:10105000B84201D101271EE02F4FB84201D102272B
:1010600019E02E4FB84201D1032714E02C4FB842AB
:1010700001D104270FE02B4FB84201D105270AE028
:10108000294FB84201D1062705E0284FB84201D1C7
:10109000072700E0082707FA08F72743CCF8087865
:1010A000DAF800405746D1F804C09C435FEACC3CD4
:1010B00000D51C433C60DBF800405F46D1F804C01B
:1010C0009C435FEA8C3C00D51C433C60DEF800404A
:1010D0007746D1F804C09C435FEACC2C00D51C4372
:1010E0003C60084F0C373C68D1F804C09C435FEA71
:1010F0008C2C00D51C433C60521C102AFFF430AFEE
:10110000BDE8F88F003C0140443802400030014007
:10111000000002400004024000080240000C0240AF
:10112000001002400014024000180240001C02405F
:101130000AB1816170470904FBE70000014880683B
:10114000704700002C00002070B5040011D0216809
:101150004CF6CC400860216845F255500860D4E94F
:10116000000141602168A0688860FFF7E7FF05463D
:101170000DE0012070BD00BFFFF7E0FF401B3028ED
:1011800005D92068C068800701D0032070BD2068A1
:10119000C0688007F0D121684AF6AA2008600020C4
:1011A00070BD00684AF6AA21016000207047000067
:1011B0000248816802781144816070472C00002049
:1011C0000B4810B5016841F400710160016841F4F9
:1011D00080610160016841F480710160032000F0CA
:1011E0006FF8032000F006F800F024F8002010BD8E
:1011F000003C024070B50D4D04464FF47A712878DA
:10120000B1FBF0F00A490968B1FBF0F000F0FCFA1C
:1012100048B9102C07D200222146501E00F030F8A9
:1012200000206C6070BD012070BD00002C0000200B
:10123000380000200A4808B5016841F48041016087
:10124000006800F4804000900548001F016841F0EC
:1012500080510160006800F08050009008BD0000DF
:1012600044380240002809DB00F01F0201219140B0
:101270004009800000F1E020C0F800117047000034
:10128000F0B40E4B1B680C46C3F30223C3F10705F1
:10129000042D00D90425191D072901D2002300E0DF
:1012A000DB1E012606FA05F1491E214099409E40A9
:1012B000761E16403143F0BC00F088BC0CED00E017
:1012C000064900F0070208684FF6FF03184040EA9D
:1012D0000220034A10430860704700000CED00E054
:1012E0000000FA05BFF34F8F05480168054A01F475
:1012F000E06111430160BFF34F8F00BFFDE70000C5
:101300000CED00E00400FA052DE9F0470E4605005B
:1013100065D0DFF81481D8F80000F7B200F00700BC
:10132000B04207D288F80070D8F8000000F007003B
:10133000B04254D128683D4C810712D5400703D5EF
:10134000206840F4E05020602878000703D520682A
:1013500040F4604020602068A96820F0F000084355
:1013600020602878C0072DD03049686808390128E6
:1013700012D0022813D0032811D009688907002948
:101380002DDA216821F0030101432160FFF7D6FE29
:10139000814641F2883A0EE009688903EFE709685F
:1013A0008901ECE7FFF7CAFEA0EB0901514502D91C
:1013B0000320BDE8F0872068696800F00C00B0EBFE
:1013C000810FEFD1D8F80010404601F00701B1427B
:1013D00007D90770006800F00700B04201D0012073
:1013E000E7E72878400705D52068E96820F4E05051
:1013F000084320602878000706D52068296920F472
:10140000604040EAC100206000F018F82168084AF6
:10141000C1F30311515CC8400649086006480068E2
:10142000FFF7E8FE0020C4E7003C02400838024015
:10143000A63800083800002030000020154810B5FC
:10144000006810F00C02144813D04110042A0FD089
:10145000082A0ED10F4C241F2268236802F03F0295
:101460005B0207D52068C0F38810A0FB010106E0ED
:10147000084610BD2168C1F38811A1FB00010023BB
:10148000FEF7A0FE2168C1F30141491C4900B0FBF1
:10149000F1F010BD083802400024F4002DE9F84FA7
:1014A00004006ED02078DFF84C93C007A9F1040542
:1014B0004AD009F104000168C1F38101012908D073
:1014C0000068C0F3810002280AD1D9F80000400268
:1014D00006D52868800337D560680028E1D033E05E
:1014E0006068B0F5803F10D0B0F5A02F286810D00C
:1014F00020F480302860286820F48020286060680C
:10150000A8B1FFF71BFE06460DE0286840F48030C6
:10151000F4E740F480202860F7E700BFFFF70EFEF5
:10152000801B642873D828688003F7D50CE0FFF788
:1015300005FE064605E000BFFFF700FE801B64289D
:10154000F0D828688003F7D42078DFF8AC828007D1
:101550004FF0000A3ED5A748001D016811F00C0F9E
:1015600008D00068C0F3810002280BD1D9F8000030
:10157000400207D42868800716D5E068012800D10A
:1015800012E033E1E068B8B10120C8F80000FFF7CD
:10159000D5FD064605E000BFFFF7D0FD801B022801
:1015A000C0D828688007F7D52868216920F0F8009E
:1015B00040EAC10028600DE0C8F800A0FFF7BEFDBA
:1015C000064604E0FFF7BAFD801B02281FD82868F2
:1015D0008007F7D42078000722D5864F87486169B5
:1015E000703771B101210160FFF7A8FD064604E0E4
:1015F000FFF7A4FD801B022809D838688007F7D5BB
:101600000EE0C0F800A0FFF799FD064605E082E075
:10161000FFF794FD801B02287DD838688007F7D437
:101620002078400768D5DFF8CCB100270BF13C0BE0
:10163000DBF80000C0000BD4DBF8001041F0805153
:10164000CBF80010DBF80000012700F0805000907C
:101650006B4E3068C00510D4306840F48070306044
:10166000FFF76CFD009005E0FFF768FD0099401A58
:10167000022850D83068C005F6D55E4EA0686C369A
:1016800001280FD00528306810D020F0010030600C
:10169000306820F004003060A068B8B1FFF74EFD5C
:1016A00000900FE0306840F00100F4E740F00400E3
:1016B0003060F7E7FFF742FD0099411A41F28830A8
:1016C000814266D830688007F4D50EE0FFF736FD1A
:1016D000009007E0FFF732FD0099411A41F288308F
:1016E000814256D830688007F4D42FB1DBF800105F
:1016F00021F08051CBF80010A069C8B33D49091D05
:101700000968C1F3810102294AD00228504607D056
:10171000C8F8600000E03CE0FFF710FD04463BE045
:101720004746C8F86000FFF709FD064605E000BF20
:10173000FFF704FD801B02282BD828688001F7D40E
:10174000D4E907010843A16A2E4A490802EB014186
:10175000626A41EA8211084394F82C1040EA016160
:10176000C9F8001001203866FFF7E8FC044606E0DF
:101770003EE000BFFFF7E2FC001B022809D8286802
:101780008001F7D534E000BFFFF7D8FC001B02282A
:1017900002D90320BDE8F88F28688001F4D427E03F
:1017A0000128F7D0D9F80000E26900F480019142E5
:1017B0001CD1226A00F03F01914217D147F6C07157
:1017C000626A0140B1EB821F10D1A26A4FF0FF3371
:1017D00000F4403103EB5202B1EB024F06D194F812
:1017E0002C1000F07060B0EB016F01D00120D1E748
:1017F0000020CFE70438024000004742800E4742F5
:10180000007000400000FFFF10B5401EB0F1807F67
:1018100001D3012010BD4FF0E02460610F2160175B
:1018200000F0D4F90020A06107202061002010BD45
:10183000FEE700000F4810B50D4901600621416028
:1018400000214FF420228160C0E903124FF480127E
:1018500042610176012242768176C2760177427733
:10186000FFF739F9002801D072B6FEE710BD00007D
:101870000068004068000020064910B50448086070
:101880000846FFF78FFA002801D072B6FEE710BDB8
:10189000003002400400002010B504490448FEF75F
:1018A00040FD0249491E087010BD000025000020BF
:1018B00010000020F0B587B014216846FEF7CCFC7C
:1018C00028480024016841F004010160016801F02A
:1018D00004010591016841F080010160016801F097
:1018E00080010591016841F00201016000681E4D10
:1018F00000F002004FF44046059001223146284690
:10190000FFF716FC194F002231463846FFF710FC4E
:1019100000961126CDE90164694628460394FFF735
:1019200011FBE814009002200125CDE901050320F8
:10193000CDE9030569463846FFF704FBA80300908C
:10194000CDE90154694638460394FFF7FBFAE803F2
:101950000090CDE90164694638460394FFF7F2FA36
:1019600007B0F0BD303802400008024000040240D9
:10197000084810B506490160032141604FF47A61BF
:101980008160FFF7E1FB002801D072B6FEE710BDD1
:101990000030004090000020FEE7FEE770477047EF
:1019A00070B58AB00E460446154620216846FEF7FB
:1019B00053FC0094049506AC2EB125B12A4631465D
:1019C0002046FEF730FC08AB224669460648FEF783
:1019D0001BFE002806D005482022694600684068A2
:1019E00000F066F90AB070BD6800002048000020D1
:1019F000FFF7DEBB30B593B030216846FEF72CFC14
:101A000014210CA8FEF728FC1E480025016841F0AF
:101A100080510160006800F0805011901A48016800
:101A200041F4804101600068022400F4804011907C
:101A3000092000904FF4803001900120CDE9050489
:101A400080050790082008904FF4A870CDE909049C
:101A500007200B906846FFF721FD08B172B6FEE73C
:101A60000CA90F2081E831004FF4A0500F90109086
:101A700005210CA8FFF748FC002801D072B6FEE74C
:101A800013B030BD40380240007000400248016889
:101A900041F470010160704788ED00E002480021C8
:101AA00001700078704700000C00002039B1012956
:101AB00007D0022908D0032909D00420704700204C
:101AC000704740F2F64004E04FF4007001E04FF43C
:101AD00000301060F3E70000F0B40025114C124E06
:101AE00006E0974200D1254604F50174B44204DAB9
:101AF000D4F80072B7F1FF3FF3D1B44202DB01200A
:101B0000F0BC704705B12C46002540CC6D1CF64357
:101B100040C1802DF9DB5B1E02D0F0BC521CDBE71C
:101B20000020EDE70000040800000E080248002134
:101B300001700078704700000C0000202DE9F0478C
:101B4000164698468146194D194A06E0954202DB31
:101B50000120BDE8F08705F50175D5F80002401CAD
:101B6000F4D10C4604CCD2B180280FDA0C46002701
:101B70002068C1432846FEF773FC241D2D1D7F1CE1
:101B8000802FF5DB31462846FEF76AFCB8F10103E9
:101B900009D0721C21464846BDE8F047CEE7401CFC
:101BA0008028DFDBF2E70020D3E700000000040814
:101BB00000000E08FEE7000010B50348FFF7F1FA39
:101BC000AFF20B0010BD0000900000200907090EC5
:101BD000002804DB00F1E02080F80014704700F0DA
:101BE0000F0000F1E02080F8141D704708B50021B7
:101BF00000910122694600F045F808B1009808BD3F
:101C00004FF0FF3008BD03B5012201A900F050F8E4
:101C1000012802D04FF0FF300CBD01980CBD02E04E
:101C200008C8121F08C1002AFAD170477047002067
:101C300001E001C1121F002AFBD17047002804D027
:101C4000D0E901128A4201D8881A7047C068801A08
:101C50000844704770B5051E12DD10210120FEF703
:101C600006FB04000CD001212846FEF700FBA06013
:101C70006060E56020600028204602D101F086FA0D
:101C8000002070BD70B50024836809E013F8015B83
:101C90000D55C6680568641C2E449E4200D12B4633
:101CA000521E02D345689D42F0D18360204670BD2C
:101CB000F0B5174604460D4600264368FFF7BEFF01
:101CC000E168081AB8420CDC0020F0BD15F8010BE1
:101CD00003F8010BE16820680144994200D10346F2
:101CE000761CBE42F2DB30466360F0BD70B50D4637
:101CF000064618210120FEF7BAFA041E14D03EB1A0
:101D00003046FFF7A7FF0949E160206000280BD0AB
:101D10003DB12846FFF79EFF05492161606000281C
:101D200002D000206061204670BD0000ED1B00085D
:101D3000071C0008F8B507461C4615460E46142039
:101D400001F0EEFB0090A0B107600461C0E90165FD
:101D5000FFF7F4F920440099074CC860206820B9C7
:101D60004FF42060FFF776FF206004226946FFF7FA
:101D70009FFF0098F8BD00004400002038B5134CC8
:101D8000002000902068E0B104226946FFF77AFF46
:101D9000B8B10098A8B1FFF7D1F90099CA6890428C
:101DA0000AD30A687AB14868904760B1FFF7C6F96C
:101DB00000990A691044C860042269462068FFF748
:101DC00077FF009838BD002038BD00004400002097
:101DD00070B5ADF58E6D01222FA18CA800F0DEFD4F
:101DE000002855D101222DA1684600F003FEE8BB72
:101DF0005FF00104FFF7E0FE01212046FEF7B4FA90
:101E0000641C062CF6D3284D2C4610E0FFF7D4FEB8
:101E10000DF26C430422191F684600F0F5FE0028FD
:101E200036D12046DDF86814FEF71AFB241D03990D
:101E300006988842EAD1684600F09CFD01210846D8
:101E4000FEF792FA194E29463046FEF709FB4FF489
:101E500060442146301DFEF703FB22462946144804
:101E6000FEF789FF01461148083000E00BE0FEF75D
:101E7000F7FA032231460E48FEF77DFF01460B4874
:101E80000C30FEF7EDFA092203A1002000F086FDD8
:101E90000DF58E6D70BD0000303A00004C343035C9
:101EA0002E62696E000000000080000800400008FB
:101EB0000400002070B50E4D8AB040016C6804F13A
:101EC0000E06641C05966C6000240090480107947F
:101ED00002900694500101905801CDE903040120BD
:101EE000CDE9080469460348FEF7FCFB0AB070BD63
:101EF000480000206800002030B5314C8BB004F160
:101F00001005206898B1006828226946FFF7BAFEDC
:101F1000002850D02B49002008600098A0380828DD
:101F200049D2DFE800F023262C2F484848424FF4DE
:101F300048600146FFF7DAFE4FF4FE61A022206000
:101F40000B461046FFF7B6FF02211F48FEF74AFB7B
:101F500001211D48FEF746FB1B48FEF7BFFE03228A
:101F60001A491B48FEF707FF686024E0FFF7BAF93B
:101F700021E001210898FEF7F7F9286015E008989C
:101F8000A06018E0286820B90899A068FEF768FAF0
:101F90002860A068001DA060296819B90999FEF79A
:101FA0005FFA2860A068001DA06005490822103172
:101FB000A420FFF7F5FCAFF2BF000BB030BD00006E
:101FC000480000200000002068000020107AFF1F59
:101FD00004000020AFF203007047000010B5044673
:101FE0000020E070401E6063204601F0E0FA08B176
:101FF000042010BD04F2362001F00EFAA0F52A41AB
:10200000553901D0032010BD94F83800E92805D0D7
:10201000EB2814D194F83A00902810D104F16E0006
:1020200001F0EFF90749B1EB002F06D004F18A0067
:1020300001F0E7F90449884201D1002010BD0220D7
:1020400010BD0000004641544641543300E0401C9E
:1020500002780AB18A42FAD1D0B27047F0B50022B4
:10206000144D134605EB021426685EB10768BE42A4
:1020700009D166688768BE4205D1A4684669B44242
:1020800004D000E00123521C032AEBD3032A01D021
:1020900069B904E04BB9022907D01220F0BD05EB65
:1020A00002108089B0F5807F01D00020F0BD1020A3
:1020B000F0BD0000BC00002030B50021054B0C46EF
:1020C00003EB01121568854200D11460491C0329F5
:1020D000F6D330BDBC0000200268490AC06A5289AC
:1020E000B1FBF2F1001D04C81AB1914203D3891A61
:1020F000F8E700207047006808447047C269891EED
:10210000921E8A4201D800207047026B408901FB71
:10211000002070472DE9F05F82460C4601F11A005D
:1021200001F07AF978BB2078012700F03F00401ECB
:1021300000EB8001DFF8589001EBC00500264FF658
:10214000FF7B00BF19F80600204401F065F98046C6
:102150006FB1FF2D17D200F063FE07463AF8150065
:102160006D1C00F05DFE87420DD1474601E0D84569
:1021700009D1761C0D2EE5D32078400606D52FB167
:102180003AF8150010B10020BDE8F09F0120FBE7F0
:10219000363900082DE9F04105680F00804606D069
:1021A00001F05CF8022809D20120BDE8F0812E6917
:1021B00016B1E869B04207D8012605E0411CF4D009
:1021C000E9698142F1D83E463446E869641CA04280
:1021D00002D80224022E0AD32146404601F03EF8DE
:1021E00038B10128E1D0411CDFD0B442EDD100204C
:1021F000DBE74FF0FF3632462146284601F0F0F982
:1022000030B957B122463946284601F0E9F920B1E4
:1022100001280FD001242046C7E72C61E9696869CD
:10222000891E884201D8401E6861287940F001006B
:102230002871F0E73446EEE72DE9F84F8046006854
:102240000E680024C76889462546705D6D1C2028ED
:102250001AD32F2813D05C2811D0FF2C57D201217C
:1022600000F0C2FD5FEA000A51D0BAF1800F12D22D
:1022700001467CA0FFF7EAFE90BB0CE06D1C715D8F
:102280002F29FBD05C29F9D07219C9F80020202829
:1022900005D2042504E027F814A0641CD5E7002526
:1022A0000021012C04D0022C24D178882E2818D1AA
:1022B00038882E2815D127F814100020A04201D20A
:1022C0002E2200E0202208EB0001401C81F824208F
:1022D0000B28F3D3404445F0200280F82420BEE0D0
:1022E00015E007EB440030F8020C202801D02E281E
:1022F00002D1641E002CF4D127F814103CB10B223B
:10230000202108F1240001F04BF9002603E006200B
:10231000BDE8F88F761C37F816002028FAD02E2852
:10232000F8D01EB145F0030500E0641E2CB107EBA8
:10233000440030F8020C2E28F7D14FF0000A4FF07D
:10234000080BCDF800A000BF37F8160006F1010613
:102350005FEA000924D0B9F1200F04D0B9F12E0FA3
:1023600004D1A64202D045F00305EDE70098584598
:1023700001D2A64219D1BBF10B0F0FD0A64201D05A
:1023800045F003050CD84FF0080000904FEA8A6032
:1023900026464FF00B0B4FEA106AD5E745F00305D0
:1023A00098F82400E52838D03AE04846B9F1800F83
:1023B00010D3002100F018FD5FEA000905D02C4978
:1023C00001EB090010F8800C814645F00205B9F1D7
:1023D000000F04D0014627A0FFF738FE20B14FF0D0
:1023E0005F0945F003050FE0A9F14100192802D863
:1023F0004AF0020A08E0A9F16100192804D8413026
:102400004AF0010A1FFA80F9009A08EB020181F8EC
:1024100024900098401C009096E7052188F824102D
:10242000BBF1080F03D14FEA8A604FEA106ACAF382
:102430008100032803D06FEA0A01890701D145F022
:102440000205A90709D40AF00301012901D145F0C9
:102450001005012801D145F0080588F82F5000200B
:1024600056E70000222A3A3C3E3F7C7F00000000F5
:10247000B63800082B2C3B3D5B5D0000401E032856
:1024800012D20A4901EB00118889B0F5807F05D08E
:1024900008B1401E80B2888110B103E00020FAE745
:1024A000002008600020704702207047BC00002018
:1024B0002DE9F0410F4604460021066800F0CEF9F0
:1024C00088B900253046E16901F071F858B9216AF0
:1024D0000978E5290CD059B100250121204600F0EA
:1024E00073F80028EED0042800D10720BDE8F08161
:1024F0006D1CBD42F1D1F9E72DE9F04704460021FA
:10250000D0F8009000F0AAF900285BD1FF25471E03
:10251000A84627634846E16901F049F8060050D112
:10252000216A087850B1CA7AE52802F03F02A27108
:102530003FD0130704D50F2A3BD105E0042640E025
:102540000F2A01D0E5B120E094F82F20520632D4B2
:10255000420606D591F80D8000F0BF00626905467D
:102560002263A84209D14A7B424506D1D9F80C0022
:10257000FFF7D0FD08B16D1E00E0FF25EDB21AE0B7
:10258000084601F0FCF840451BD094F82F00C00726
:102590000FD1D4F8201004F124000B2211F8013BD4
:1025A00010F8015B5B1B521E02D0002BF6D000E03E
:1025B0003BB1FF2527630021204600F005F8060007
:1025C000A8D03046BDE8F0872DE9F04705464769B9
:1025D0000468C0698946203710B1B7F5001F02D3DF
:1025E0000420BDE8F087F90560D1401CE861A969C5
:1025F0004FF0000829B16089401E10EA572F05D01E
:1026000054E02089B0EB571F1DD94FE0284600F059
:1026100025FE064601281BD9701C33D0E069B04264
:102620003ED8B9F1000F0ED02846A969FFF7B2FDD8
:1026300006000BD0012E0BD0701C23D0204601F0D9
:10264000EFF8F8B906E0C5F81C80C9E70720C8E72D
:102650000220C6E74FF40072002104F1380000F0B8
:102660009FFF4FF0000831462046FFF747FD4FF02F
:10267000010960630DE000BF84F80390204601F07B
:10268000CFF808B10120ACE7606B08F10108401CED
:10269000606361894145EFD8616BA1EB080060631D
:1026A00031462046AE61FFF729FDE861C7F3080017
:1026B000204438306F612862002092E72DE9F04F06
:1026C0000446D0F8009090F82F0089B010F0A00FC9
:1026D00003D0062009B0BDE8F08F0025D9F80C0022
:1026E00000E06D1C30F815100029FAD104F1240126
:1026F0000C226846039100F049FF9DF80B00C007CB
:1027000019D0402084F82F00012633466946D9F8B5
:102710000C20039800F062FD2046FFF7EDFE10B993
:10272000761C642EF1D3642E0FD00428D2D19DF8EC
:102730000B0084F82F009DF80B00800707D50D20B3
:102740000C35B5FBF0F6761C02E00720C2E7012647
:1027500031462046FFF7ACFE05007BD1761E05967C
:102760005FD06169704201EB4011204600F076F8BD
:1027700005006FD1039801F002F84FF6FF7B079038
:102780004846E16900F013FF050063D1D9F80C0059
:1027900006900598D4F82080C0B20490079988F874
:1027A0000D100F2188F80B10002188F80C1008F18B
:1027B0001A0000F0E0FF0498DFF89CA0401E00EB38
:1027C000800101EBC006002701E05D4503D00698BB
:1027D00030F81650761C1AF807002946404400F0DD
:1027E000CAFF05B95D467F1C0D2FEED35D4505D0B0
:1027F000069830F8160008B1049803E0049840F0F9
:102800004000049088F80000012089F803000021AE
:102810002046FFF7D9FE05001CD10598401E059003
:10282000AED14846E16900F0C2FE050012D1202277
:102830000021206A00F0B4FE0B22206A039900F008
:10284000A5FE94F82F00216A00F0180008730120FB
:1028500089F8030028463DE7363900082DE9F041A4
:1028600007680E460546B1F5001F36D2F00634D192
:102870006E61AC6824B93878032805D3FC6A1CB1B2
:1028800078894FEA402812E03889B0EB561F24D9E6
:10289000F86A12E0284600F0E1FC0446401C1AD019
:1028A000022C1AD3F869A04217D9A6EB08064645B0
:1028B0002146EFD23846FFF721FCC5E9064060B15A
:1028C00000EB5620E861C6F308003844383028622F
:1028D0000020BDE8F0810120FBE70220F9E70000BD
:1028E000084910B50B5C002253B901220A540A189A
:1028F00001EB8000127A4068016810468847024662
:10290000104610BDEC00002030B4054C231804EB39
:1029100080001B7A406804691846A44630BC6047B2
:10292000EC00002030B4054D2C1805EB8000247A13
:10293000406885682046AC4630BC6047EC0000200B
:10294000044A111802EB8000097A40684268084680
:1029500010470000EC00002030B4054D2C1805EBAA
:102960008000247A4068C5682046AC4630BC604789
:10297000EC00002038B5044600F0EFF900280CD137
:102980006946204600F075FF002806D12069FFF750
:1029900075FD002801D10021216038BD2DE9F741E6
:1029A00081B0904602980090684600F0B8FC0400A0
:1029B00003D50B2004B0BDE8F0810D4E002756F87A
:1029C00024501DB12846FFF777FB2F70019800288F
:1029D00000D0077046F8240002D0B8F1010F01D0F2
:1029E0000020E7E7002201A902A800F059FAE1E778
:1029F000400000202DE9F743ADF5147D05000BD014
:102A000002F03F063246694695A800F049FA0400F4
:102A10004FF0000805D0EFE009200DF5177DBDE867
:102A2000F083009811A90190C16001A8959900F068
:102A300063FB04000ED19DF83300000601D5062487
:102A400008E0700801D0012100E0002101A8FFF793
:102A500005FB044616F01C0F5DD04FF00109C4B110
:102A6000042C10D10020674902E0401C032804D246
:102A700001EB00121268002AF7D1032807D001A841
:102A8000FFF71CFE044646F008065CB1B4E01224D1
:102A9000B2E09DF80A0010F0110F47D1700701D580
:102AA0000824A9E0300747D500F037FC074609980D
:102AB00039460E3000F057FE09983946163000F0BE
:102AC00052FE09992020C8720999009800F086FCEE
:102AD000074600220999009800F031FE099800216C
:102AE0001C3000F040FE009981F8039017B3D1F834
:102AF00034900022394601A800F0E7FD04007BD1A4
:102B00004946009800F053FD04000098A7F1010722
:102B100007610DD070E0ECBB9DF80A00C10601D53D
:102B2000042469E0B10703D5C00701D0072463E09E
:102B3000300701D546F040060098406B686209985E
:102B4000A862700801D0012100E0002101A800F076
:102B500005FC2861B8B30999009800F03FFCA86013
:102B600009981C3000F04DFCC5F82C80E8600099F5
:102B70002960009905F130004FF40072C988A980DE
:102B80002E7585F81580C5F8208000218146C5F88E
:102B9000188000E030E000F003FDB0062ED5EE68AE
:102BA00066B3AE610098A968408947020FE02846E5
:102BB00000F054FB0146012800D80224481C03D031
:102BC000F61B24B105E01BE00124F61B01E0BE4228
:102BD000EDD8E96184B9F00510D00098FFF78EFABE
:102BE00070B100EB56222A620098012349464078D2
:102BF000FFF798FE10B10124C5F8008020460CE7CD
:102C00000224F9E7BC0000202DE9FE4F8846002190
:102C1000196099461546044602A900F02AFE0028CC
:102C200012D1607D00280FD1207DC0070BD0E16854
:102C3000A0690127081A4FF0020A04F1300B8542FF
:102C400000D9054684E00720BDE8FE8FA169C805CC
:102C500066D102984089401E10EA512611D129B14F
:102C6000E06A28B12046FFF737FA05E0A06803E0E4
:102C70002046E16900F0F2FA02281BD3411C4AD039
:102C8000E061E1690298FFF739FA98B130440190A8
:102C9000680A009025D0029932184889824201D9E9
:102CA000801B0090DDE9003248784146FFF73AFE8C
:102CB00088BB03E084F815A00220C5E7207D00064C
:102CC0000CD5216A0198081A0099884206D208EBAF
:102CD00040204FF40072594600F058FC009846021C
:102CE0002CE0226A0198824218D0207D00060AD585
:102CF0000298012359464078FFF72EFE58B9207DEF
:102D000000F07F0020750298012359464078019A0F
:102D1000FFF708FE10B16775012095E70198206262
:102D2000208BC0F30800C0F50076AE4200D92E46D5
:102D3000011932464046303100F028FCA069B04409
:102D40003044A061D9F800008119AD1BC9F800100A
:102D5000002D7FF47BAF002076E7F8B50446694686
:102D600000F087FD00280ED1217D4A060BD508060C
:102D70000ED50098226A0123407804F13001FFF754
:102D8000EBFD08B10120F8BD207D00F07F0020752B
:102D900000F0C3FA0646616A009800F008FC0028BB
:102DA000F1D1A56A2946E87A40F02000E872A268CD
:102DB000206800F0C4FC05F11C00E16800F0D3FCC1
:102DC000314605F1160000F0CEFC002105F112009D
:102DD00000F0D1FC00980121C17000F0DDFC217DE4
:102DE00001F0BF012175F8BD802804D30B4A51B111
:102DF000FF2801D90020704702EB4000A0F5805069
:102E0000B0F8000F704732F81130834203D0491CEC
:102E100089B28029F7D38031C8B270477039000871
:102E200030B5B0F5805F01D21B4900E01B4931F895
:102E3000022B002A15D0904213D331F8024B230AFB
:102E4000E5B252FA84F4844221D9092B09D2DFE891
:102E500003F005090E11131517191B00801A31F81C
:102E6000100030BD811A01F00101401A00E0103855
:102E700080B230BD2038FBE73038F9E71A38F7E781
:102E80000830F5E75038F3E7A0F5E350F0E7002B02
:102E9000CDD101EB4501CAE7703A0008623C000859
:102EA0002DE9FF41002790460E460F6000F037FAEB
:102EB000050003D50B2004B0BDE8F0818B4850F825
:102EC00025409CB13460207808F0FE0620B160787F
:102ED000FFF736FDC1070BD02770E8B2B846607027
:102EE000FFF7FEFCC10708D00320E4E70C20E2E76F
:102EF0000EB1400704D40020DDE71EB1400701D524
:102F00000A20D8E7002631462046FFF767F8022856
:102F100022D100254FEA0D0704EB051090F8FA11B5
:102F200000F5FB7019B1083000F06BFA00E00020EA
:102F300047F825006D1C042DEED3002557F82560B9
:102F400036B131462046FFF749F8022801D203E0A6
:102F500003206D1C042DF1D3042809D002286DD262
:102F600004F1430000F058FAB0F5007F66D101E0AB
:102F70000120A0E704F14E0000F04EFA18B904F168
:102F80005C0000F03EFA206294F84850A570012DD4
:102F900001D0022D52D1454394F845006081E8B339
:102FA000411E08424AD104F1490000F035FA20815F
:102FB000000743D104F14B0000F02EFA070004D1C2
:102FC00004F1580000F01DFA074604F1460000F035
:102FD00023FA010032D02389481900EB13129742DB
:102FE0002CD3B81A6789B0FBF7F0B8B103274FF6B6
:102FF000F57C604500D8022740F6F57C604500D896
:103000000127801C324422633144E061C4E9096134
:10301000032F15D013B12944E16200E00EE0022F26
:103020001FD000F0010100EB400001EB500000BF99
:10303000216A00F2FF10B1EB502F14D20D203AE7B5
:1030400004F1620000F0E8F90028F7D12089002897
:10305000F4D104F1640000F0D4F9E062E06980008A
:10306000E6E74000E4E74FF0FF3060612061802038
:103070002071032F2CD104F1680000F0CDF9012854
:1030800026D1711C204600F092FA08BB84F8048017
:1030900004F2362000F0C0F9A0F52A41553917D1C5
:1030A00004F1380000F0ADF91149884210D104F55F
:1030B000077000F0A6F90F49884209D104F508709D
:1030C00000F09FF9606104F5097000F09AF9206141
:1030D00006492770091F0888401C0880E0802046A8
:1030E000C4F81880FEF7E8FF05E700004000002064
:1030F000525261417272416173B50446056801988C
:1031000000782F2803D05C2801D0A96908E0019835
:10311000401C019000782F28F9D05C28F7D00021BE
:10312000A160019880260078202806D284F82F60BC
:1031300000212046FFF792FB7CBD01A92046FFF746
:103140007BF80028F8D12046FFF7D6F994F82F1025
:1031500068B10428F0D18A0605D54807EDD584F872
:103160002F6000207CBD4907FCD405207CBD4907A9
:10317000FCD4A079C006F8D5A08AC0F30800411994
:103180002846383100F02AF9A060D6E710B50028AB
:1031900021D0114B0022001F196803E0814203D89F
:1031A0000A4649680029F9D152B11368841A9C4231
:1031B00004D1006818441060104602E0506000E03E
:1031C000186039B102680B1A934203D10B681A4494
:1031D00002604968416010BD600000207CB5164661
:1031E0001C4605460B2200F0D1F9052C11D91A4ACC
:1031F0000CE00021B61C2346044663F35F0440083C
:10320000E30300D55440491C1029F4D3308800282A
:10321000EFD107214FEA0D0204F00F0030303928BA
:1032200000D9C01D5054491E2409F5D17E205054A8
:10323000002000E0401C884202D22B5C202BF9D1F8
:10324000082902D2535C491C00E020232B54401C67
:103250000828F5D37CBD0000211001002DE9F041C4
:1032600004680D4602290BD3E069A84208D92078EA
:103270004FF0FF36012807D002282BD0032839D081
:1032800001263046BDE8F081A06A05EB550700EB4A
:103290005721204600F08BF90028F2D1C7F308002F
:1032A00020447F1C90F83880A06A00EB572120460C
:1032B00000F07DF90028E4D1C7F30800204490F81D
:1032C000381048EA0120E90701D00609D9E7C0F320
:1032D0000B06D6E7A06A00EB1521204600F067F93F
:1032E0000028CED1E8B204EB4000383000F094F86A
:1032F0000646C6E7A06A00EBD511204600F057F954
:103300000028BED140F2FF1000EA8500204438308A
:1033100000F077F820F07046B3E70020704710B552
:1033200004464FF0FF302268002A13D0114600E017
:10333000491C0B78202B0ED33A2BF9D112F8013B04
:10334000303B0A2B06D28A4204D1002B02D1491C01
:103350001846216010BD002010BD0000F0B50246E7
:103360001D4BD2F80050002003EB00142668AE423B
:1033700007D166689768BE4203D1A4685669B44213
:1033800002D0401C0328EFD3032814D1002002E010
:10339000401C032804D203EB00142468002CF7D14E
:1033A00003280ED003EB0014256095686560526910
:1033B000A2600022A281002903EB0011898902D0BA
:1033C00019B10020F0BD491C01E04FF4807103EBFE
:1033D0000012401C9181F0BDBC00002070B5064673
:1033E0000D4601F11A0000F017F804463078032862
:1033F00005D105F1140000F00FF844EA004420461E
:1034000070BDC178827842EA01214278007842EAB0
:10341000012140EA012070474178007840EA01200C
:10342000704700002F4D26E02F4C206830B96068AF
:1034300020B9A06810B9E068002850D0FEF71CFA47
:10344000032221462948FDF796FCE168884215D100
:10345000D4E900122548FDF78EFCA16888420DD101
:10346000D4F80040FEF784FA21480460206880F315
:103470000888606880472868C000D5D4FDF7A0FEA2
:10348000FEF7B8FAFEF716FAFEF706FAFEF7D2F9DB
:10349000FEF7F2F9FEF76CFA002316A21946174858
:1034A000FEF748FC002316A219461748FEF742FC17
:1034B000642316A200211848FEF73CFC0B4C241F85
:1034C000FEF75CFC20680028FAD0FDF737FE216883
:1034D0008842F5D9FEF77CFCFDF704FFF0E70F4CBE
:1034E000C0E70000743802400040000804000020DB
:1034F00008ED00E063616E5478000000D51F0008FD
:1035000063616E5278000000F91E000877617463F1
:1035100068646F6700000000B91B000800800008A5
:10352000F0B50B30154D20F007010024144A0FE0D0
:1035300003688B420BD38B4205D95E1A4318476848
:10354000C3E9006700E04368136002C004E0021DA5
:1035500010680028ECD12046002802D1286808B164
:103560000020F0BD064A07481060074A121A22F0F0
:103570000702C0E9002401202860D7E7640000208A
:1035800060000020FC000020F8800020002A05D008
:1035900011F8013B00F8013B521EF9D170470000C1
:1035A0005FFA81F100F8011B521EFBD1704770B524
:1035B0000446406B0D460026A8420FD0204600F07E
:1035C0002FF906000AD1607801232A4604F1380158
:1035D000FFF7A8F908B1751E01266563304670BD76
:1035E0002DE9F047022617460D460446022969D305
:1035F000E069A84266D920784FF00109012804D07B
:10360000022836D003285DD143E0A16A05EB5508B6
:1036100001EB58212046FFF7CAFF060052D1C8F33C
:1036200008002044383008F10108E90704D0017887
:10363000FAB262F31F1100E03946017084F803907A
:10364000A16A204601EB5821FFF7B1FF060039D1EE
:10365000C8F3080020443830E90702D0C7F3071147
:1036600005E00178C7F3032201F0F0011143017076
:1036700026E0A06A00EB15212046FFF798FF060020
:1036800020D1E8B204EB4000B9B2383000F073F852
:1036900016E0A06A00EBD5112046FFF788FF060070
:1036A00010D140F2FF1000EA850020443830054672
:1036B000FFF7A7FE67F31B000146284600F053F80A
:1036C00084F803903046BDE8F0872DE9F0410568A5
:1036D00013460E46074602292DD3E869B0422AD97F
:1036E0003BB14FF0FF3219462846FFF779FF00281B
:1036F0001FD131463846FFF7B1FD040018D0012C28
:1037000019D0601C19D0002231462846FFF768FF07
:1037100000280ED1E8696969821E914205D2491CD0
:103720006961297941F0010129712646B042E0D84A
:103730000020BDE8F0810220FBE70120F9E770B529
:103740000C460646154691B204F11A0000F013F833
:103750003078032806D1290C04F11400BDE870402C
:1037600000F009B870BD0170090A4170090A817042
:10377000090AC17070470170090A4170704701461B
:1037800000200B22430803EBC01011F8013B521E2E
:103790001844C0B2F6D1704770B5044600F040F846
:1037A000050036D1207803282CD12079012829D191
:1037B000420204F1380000210646FFF7F1FE4AF606
:1037C000552104F23620FFF7D6FF13493046FFF7A4
:1037D000CAFF124904F50770FFF7C5FF04F508702A
:1037E0006169FFF7C0FF04F509702169FFF7BBFFAE
:1037F000626A0123521C626360783146FFF7ACF8BD
:1038000000202071002260781146FFF77DF800B19A
:103810000125284670BD000052526141727241611B
:103820002DE9F0410446C0780027F8B1656B04F13A
:103830003801607801232A468846FFF78DF808B1E1
:10384000012713E00020E070A06A216A281A88424C
:103850000CD2A67808E0206A0123054460782A4645
:103860004146FFF779F8761E022EF4D23846BDE8BD
:10387000F08170B50E4604004FF009050CD02068A9
:1038800050B1017841B1A188C288914204D14078F9
:10389000FFF756F8C00703D000203060284670BDFF
:1038A00000252068F9E70000000000000000010288
:1038B0000304060708094355454141414143454535
:1038C0004549494941414592924F4F4F5555594FAE
:1038D000554F9C4F9E9F41494F55A5A5A6A7A8A906
:1038E000AAABACADAEAFB0B1B2B3B4414141B8B91F
:1038F000BABBBCBDBEBFC0C1C2C3C4C54141C8C9BB
:10390000CACBCCCDCECFD1D145454549494949D97E
:10391000DADBDCDD49DF4FE14F4F4F4FE6E8E8559A
:1039200055555959EEEFF0F1F2F3F4F5F6F7F8F9D1
:10393000FAFBFCFDFEFF01030507090E1012141629
:10394000181C1E222A2B2C2E3A3B3C3D3E3F5B5D31
:103950007C7F000001000400100040000001000214
:103960000000010002000400080010002000000018
:10397000C700FC00E900E200E400E000E500E70029
:10398000EA00EB00E800EF00EE00EC00C400C50028
:10399000C900E600C600F400F600F200FB00F900E2
:1039A000FF00D600DC00F800A300D800D700920189
:1039B000E100ED00F300FA00F100D100AA00BA0026
:1039C000BF00AE00AC00BD00BC00A100AB00BB005E
:1039D00091259225932502252425C100C200C0000F
:1039E000A9006325512557255D25A200A5001025B6
:1039F000142534252C251C2500253C25E300C30077
:103A00005A25542569256625602550256C25A40076
:103A1000F000D000CA00CB00C8003101CD00CE00BC
:103A2000CF0018250C2588258425A600CC008025EC
:103A3000D300DF00D400D200F500D500B500FE00B1
:103A4000DE00DA00DB00D900FD00DD00AF00B400CD
:103A5000AD00B1001720BE00B600A700F700B80007
:103A6000B000A800B700B900B300B200A025A000C4
:103A700061001A03E0001703F8000703FF000100CC
:103A800078010001300132010601390110014A01BB
:103A90002E017901060180014D004302810182015E
:103AA00082018401840186018701870189018A01DD
:103AB0008B018B018D018E018F019001910191018C
:103AC00093019401F60196019701980198013D0236
:103AD0009B019C019D0120029F01A001A001A20168
:103AE000A201A401A401A601A701A701A901AA019D
:103AF000AB01AC01AC01AE01AF01AF01B101B2014C
:103B0000B301B301B501B501B701B801B801BA01FC
:103B1000BB01BC01BC01BE01F701C001C101C20172
:103B2000C301C401C501C401C701C801C701CA015D
:103B3000CB01CA01CD011001DD0101008E01DE01C2
:103B40001201F3010300F101F401F401F80128016D
:103B5000220212013A020900652C3B023B023D029F
:103B6000662C3F0240024102410246020A01530212
:103B7000400081018601550289018A0158028F01A6
:103B80005A0290015C025D025E025F0293016102D3
:103B9000620294016402650266026702970196015F
:103BA0006A02622C6C026D026E029C01700271024C
:103BB0009D01730274029F017602770278027902F6
:103BC0007A027B027C02642C7E027F02A6018102C3
:103BD0008202A9018402850286028702AE014402A4
:103BE000B101B20145028D028E028F029002910254
:103BF000B7017B030300FD03FE03FF03AC030400D6
:103C00008603880389038A03B1031103C2030200F8
:103C1000A303A303C4030803CC0303008C038E0394
:103C20008F03D8031801F2030A00F903F303F40326
:103C3000F503F603F703F703F903FA03FA03300475
:103C4000200350041007600422018A043601C104D5
:103C50000E01CF040100C004D00444016105260414
:103C600000007D1D0100632C001E9601A01E5A015C
:103C7000001F0806101F0606201F0806301F080632
:103C8000401F0606511F0700591F521F5B1F541F7C
:103C90005D1F561F5F1F601F0806701F0E00BA1FB2
:103CA000BB1FC81FC91FCA1FCB1FDA1FDB1FF81F8E
:103CB000F91FEA1FEB1FFA1FFB1F801F0806901F4A
:103CC0000806A01F0806B01F0400B81FB91FB21FC6
:103CD000BC1FCC1F0100C31FD01F0206E01F02063D
:103CE000E51F0100EC1FF21F0100FC1F4E21010027
:103CF000322170211002842101008321D0241A0571
:103D0000302C2F04602C0201672C0601752C020157
:103D1000802C6401002D260841FF1A0300000000DA
:103D2000403D000800000020680000001E1C000844
:103D3000A83D00086800002090C000002E1C00086C
:103D4000B80B0000000000000000000001000000AF
:103D50009D1A00082D1B0008D91A00083D1B0008F9
:103D6000AD1A000800000000000000000100000083
:103D700010000000000000000024F400000000001B
:103D80000000000000000000000000000000000033
:103D90000000000000000000000000000000000023
:083DA00000000000000000001B
:040000050800018965
:00000001FF
