:020000040800F2
:10000000F8C000209D010008731600080D160008B6
:1000100071160008E90200086D19000800000000D0
:100020000000000000000000000000003B17000876
:10003000110300080000000039170008911700089C
:10004000B7010008B7010008B7010008B7010008B0
:10005000B7010008B7010008B7010008B7010008A0
:10006000B7010008B7010008B7010008B701000890
:10007000B7010008B7010008B7010008B701000880
:10008000B7010008B7010008B7010008B701000870
:10009000B7010008B7010008B7010008B701000860
:1000A000B7010008B7010008B7010008B701000850
:1000B000B7010008B7010008B7010008B701000840
:1000C000B7010008B7010008B7010008B701000830
:1000D000B7010008B7010008B7010008B701000820
:1000E000B7010008B7010008B7010008B701000810
:1000F000B7010008B7010008B7010008B701000800
:10010000B7010008B7010008B7010008B7010008EF
:10011000B7010008B7010008B7010008B7010008DF
:10012000B7010008B7010008B7010008B7010008CF
:10013000B7010008000000000000000005030008EF
:10014000ED020008F5020008FD020008B7010008F2
:10015000B7010008B7010008B7010008B70100089F
:10016000B7010008B7010008B7010008B70100088F
:10017000B7010008B70100080000000000000000FF
:10018000B7010008B7010008DFF80CD000F09AF8BA
:1001900000480047D1310008F8C0002006488047D9
:1001A00006480047FEE7FEE7FEE7FEE7FEE7FEE75C
:1001B000FEE7FEE7FEE7FEE73D18000889010008BC
:1001C0002DE9F05F0546002092469B46884606468C
:1001D000814640241BE0284641464746224600F01F
:1001E00061F853465A46C01A914110D31146184639
:1001F000224600F048F82D1A67EB01084F462246C8
:100200000120002100F03FF817EB00094E41201EAD
:10021000A4F10104DFDC484631462A464346BDE8E6
:10022000F09F40EA01039B0703D009E008C9121FB1
:1002300008C0042AFAD203E011F8013B00F8013BA0
:10024000521EF9D27047D2B201E000F8012B491ECC
:10025000FBD270470022F6E710B513460A46044663
:100260001946FFF7F0FF204610BD10B5484304467D
:1002700003F050FA002805D00021002C02D0641EA3
:100280000155FAE710BD202A04DB203A00FA02F1FA
:10029000002070479140C2F1200320FA03F3194374
:1002A00090407047202A04DB203A21FA02F0002116
:1002B000704721FA02F3D040C2F120029140084376
:1002C00019467047064C074D06E0E06840F0010310
:1002D00094E8070098471034AC42F6D3FFF758FF74
:1002E000D03B0008F03B0008FEE70000074800F0A4
:1002F00083BA00BF054800F07FBA00BF034800F092
:100300007BBA00BF014800F077BA00BF3800002078
:1003100070470022AFF30080B0B50D4C0346607A01
:1003200008B10120B0BD657A00206055657A04EB04
:1003300085056B60637A23441A72627A531C3032EB
:10034000637242F63A73C8700A70A1F80130B0BD0A
:10035000B4000020B0B586B00C46054600F036FD6E
:100360000220CDE90354694605900020019001A8C0
:1003700000F09AFC044600F0DFFC204606B0B0BD59
:10038000584A0329136823F4407313604FF44073F1
:1003900038BF0B02116819431160116821F0F80190
:1003A0001160116841EAC00040F00200106010685E
:1003B00040F48030106070471348016889050FD5FC
:1003C000016821F400710160016841F4006101607D
:1003D000016821F400610160016841F4007101606D
:1003E000016849050FD5016821F480610160016849
:1003F00041F480510160016821F48051016001687D
:1004000041F4806101607047003C024035490A6850
:1004100022F440720A600A6842F004020A600A6824
:1004200042EA002040F480300860704770B505460D
:100430005B480C46F22101602868A04201D10026E9
:100440000CE000F0C3FC022029462246002300F005
:100450007BFC0228F7D0064600F06EFC304670BDEB
:10046000204A136823F44073136013681360136801
:1004700043F0010313600170704700BF10B51949C4
:100480000C6824F440740C600C6844F440740C60F4
:100490000C6844F001040C600260BFF36F8F43608E
:1004A00010BD00BF0F4A136823F440731360136834
:1004B00043F480731360136843F0010313600180F9
:1004C000704700BF074A136823F440731360136832
:1004D00043F400731360136843F001031360016079
:1004E000704700BF103C02402D480168C90606D580
:1004F0002A49CA6942F01002CA61102101600168EC
:10050000890606D52549CA6942F00802CA61202138
:1005100001600168490606D52049CA6942F0040213
:10052000CA61402101600168090606D51B49CA69F4
:1005300042F00202CA61802101600168890706D584
:100540001649CA6942F02002CA610221016070475F
:10055000F8B5044611480021114EC16100F01CFDA0
:100560000546671C3068C00309D5002FFAD024B1B6
:1005700000F012FD401BA042F4D90320F8BD306802
:10058000C0071CBF01203060306810F0F20F04BFBC
:100590000020F8BDFFF7A8FF0120F8BDD000002023
:1005A0000C3C024090F82020013A012A04D800684F
:1005B00000F11402002004E000F1240201204FF4B5
:1005C0008021136819431160704770B590F820605E
:1005D0000468013EA568012E0CD815F0E05F0CD030
:1005E000C5F30165032D0ED100F1240101204FF464
:1005F000000231E001F07EF82EE000F1240101203C
:100600004FF4001228E00120A8401860886828B143
:100610004B68CE6846EAC303034303E00868CB682F
:1006200043EA405304EB0510C0F880310B69C0F871
:100630008431097D012905D100F5C2710B6843F4AD
:1006400080730B605168C0F88C1111680122C0F8EA
:10065000881100F5C07100200B681A430A6070BD54
:10066000F0B590F82020013A012A27D82F480268D7
:1006700042F001020260026822F47C5202604C697E
:10068000CD694A6A036843EA02220123026004F04A
:100690001F0203FA02F2C3699343C361D343012DDE
:1006A00012D025BBC5681D40C56000EBC405CE68EF
:1006B0008F8847EA06462E640D4611E0416A41F4F0
:1006C000802141620120F0BDC5681543C56000EB83
:1006D000C4050E688F8847EA06462E6401F10C05B2
:1006E0008E682D8800EBC40445EA064565644468BD
:1006F0008F690E69096A44EA0205002F08BF04EAFF
:1007000003054560002E446944EA020508BF04EA77
:1007100003050129456102D1C1691143C161016825
:1007200021F0010101600020F0BD00BF0066004023
:10073000704770B590F82040013C012C03D8046844
:1007400021B1256903E000F0D5FF51E0E568AD0770
:1007500044D004EB0114D4F8B05115F004059560B1
:1007600004F5D875D4F8B06119BFF6085660760D57
:1007700016602D6805F00205D560D4F8B45105F077
:100780000F051561D4F8B451C5F307259561D4F868
:10079000B4512D0C5561D4F8B8211A7000F080FFC7
:1007A000120A5A7000F07CFF120C9A7000F078FF69
:1007B000120EDA7000F05EFF1A7100F05BFF120A91
:1007C0005A7100F057FF120C9A7100F053FF120E8D
:1007D000DA71006841B100F1100107E000F1240175
:1007E00001204FF4001203E000F10C010020202250
:1007F0000B681A430A6070BD2DE9F84F0446006883
:100800004669D0F804908768D0F80CB0D0F810A0F2
:10081000D0F81880F10701D1002545E0F9070FD085
:1008200001218160B80708D4780720D4380700F187
:10083000B880204600F0DEF902E0204600F0DBF947
:100840000025F80518D520684FF480718160B8053F
:1008500009D478050ED438054EBF05F580452046ED
:1008600000F0CBF908E0204600F0C8F904E04FF4AE
:100870000065E6E705F50055F80315D520684FF447
:1008800080318160B80309D478030BD438034EBF9C
:1008900005F58035204600F0B3F905E0204600F06C
:1008A000B1F901E005F50045300748BF5FEACB60CC
:1008B0004FD4700748BF5FEA0B7050D4B00706D51D
:1008C0002068C068800702D0204600F057F9700603
:1008D00048BF5FEACA6049D4B00648BF5FEA0A7001
:1008E0004AD4F00606D520680069800702D0204669
:1008F00000F057F9B00348BF5FEAC96043D4F00382
:1009000048BF5FEA097045D4300463D55FEA497097
:100910005DD508EA1620F20508F0010100F002009A
:1009200048BF0844720508F0040148BF0844054365
:1009300030054CD518F0700049D010380009052852
:1009400040D8DFE800F0033134373A3D45F0080580
:1009500038E02068102145F40075C160A9E72068DF
:100960000821C160204600F007F9A7E720681021A0
:1009700045F480650161AFE72068082101612046E8
:1009800000F00EF9ADE7206810214160204600F02C
:100990000AF9B4E7206808214160204600F04AF9CE
:1009A000B2E74FF480554CE745F010050AE045F0FA
:1009B000200507E045F0400504E045F0800501E032
:1009C00045F480752068816921F07001816120689B
:1009D000042141603DB1606A284360622046BDE861
:1009E000F84FFFF7A5BEBDE8F88F70B5C0B104465B
:1009F00090F8200010B9204600F066F820680168E1
:100A000021F00201016000F0C7FA05462068416844
:100A1000890707D500F0C0FA401B0B28F6D30DE07C
:100A2000012070BD00F071FE054620684168C907CD
:100A30000BD100F0B1FA401B0B28F6D3606A0521F8
:100A400040F40030606201203AE0217E026822F02A
:100A50008002012908BF80320260617E026822F0B4
:100A60004002012908BF40320260A17E026822F0E4
:100A70002002012908BF20320260E17E026822F0D4
:100A80001002012918BF10320260217F026822F093
:100A90000802012908BF08320260617F026822F063
:100AA0000402012908BF04320260261D6ECE1A43DB
:100AB0002A43013932431143C161002001216062A0
:100AC00084F8201070BD0000B0B586B001682748DA
:100AD000814249D10022734900F5CE3001920B6961
:100AE00043F080630B610B6903F080630193019B0A
:100AF00001920B6943F000730B610B6903F0007303
:100B00000193019B01920A6842F002020A6009689F
:100B100001F002010191019909210591032104913C
:100B200001210391122102914FF44051019101A939
:100B300000F060F90E4C3F2003210022A0470D4D2C
:100B40003F20A847402002210022A0474020A8477C
:100B5000412002210022A0474120A8474220032132
:100B60000022A0474220A84706B0B0BD0068004060
:100B7000D9100008B91000087047000010B58AB0FD
:100B80006C46002104F120032246FFF7D2FD2748DE
:100B9000214628220068006800F05DFF0AB010BD01
:100BA0007047FFF7EBBF7047B0B5044690F82000E0
:100BB000012816D1022084F820002068016821F065
:100BC0000101016000F0E8F9054620684068C007AF
:100BD0000DD000F0E1F9401B0B28F6D300F07DFDAD
:100BE00003E0606A40F4002060620120B0BD002094
:100BF0006062B0BD704700F005B8704700F002B801
:100C00007047000010B58AB008482022006840688C
:100C100002AC214600F008FF30B1054804F118028B
:100C200001AB2146FFF7D1FC0AB010BD70000020D7
:100C300038000020704710B50223437103689C6898
:100C400044F001049C601AB110C9013A1C60FAE733
:100C5000196801224271084610BD60B110B5044602
:100C6000407920B900202071204600F007F80120CB
:100C70006071002010BD01207047000081B009495B
:100C80000068A1F5036290420AD100200090086834
:100C900040F480500860086800F48050009000988C
:100CA00001B07047303802402DE9F843DFF8148175
:100CB000054698F81800012801D1022638E00120E5
:100CC000894688F8180000F0E1FC064668BB4FF042
:100CD000FF303D4CC9F80000286801280AD1287C63
:100CE000FFF794FB00F0D2FC0646206820F00400D9
:100CF000206018E0A8680746E968084487420ED2D9
:100D0000297C3846FFF73CFB00F0C0FC0646206813
:100D100020F0FA00206026B9A8680137ECE7002629
:100D200001E0C9F80070FFF747FB002088F81800C1
:100D30003046BDE8F88300BF2348016841F0004118
:100D400001600020704700BF2DE9F041DFF874809A
:100D5000074698F81800012804BF0220BDE8F0817A
:100D600001201E4614460D4688F818004CF25030FB
:100D7000FFF7EEFB08BB022F07D0012F0AD077B98F
:100D8000E1B22846FFF76CFB0EE028462146FFF74C
:100D900099FB09E0A1B22846FFF784FB04E028464E
:100DA00022463346FFF76AFB4CF25030FFF7D0FB88
:100DB00005490A6822F001020A60002188F818102B
:100DC000BDE8F081D0000020103C02400648C16818
:100DD000B1F1FF3FC4BF00207047044901600449DE
:100DE0000160C068C00F7047043C024023016745A2
:100DF000AB89EFCD2DE9FC4F5E4A08244FF0010B83
:100E00004FF000094FF0000A90425B4A08BF0724E8
:100E100002444FEAB223072B38BF4FEAB2240094B2
:100E200003250022102A08BFBDE8FC8F0F680BFACB
:100E300002F6374200F09880D1F8048005FA0AF7EC
:100E4000FF4308F0030CACF1010EBEF1010F0ED808
:100E50008468CB683C4003FA0AF323438360C8F3F9
:100E6000001344689340B4432343436005E0BCF15E
:100E7000030F02D14FF0030C20E0C3688C683B40A5
:100E800004FA0AF42343BCF1020FC36016D109F03F
:100E90001C0E0F2303FA0EFC6FF0030303EA520447
:100EA0000444236A23EA0C0C0B6903FA0EF343EAA9
:100EB0000C032362D1F8048008F0030C04680CFAD8
:100EC0000AF33C40234303605FEAC8034CD5002388
:100ED0002C4C22F003070193236843F480432360E2
:100EE00023680F2403F48043019309F00C0304FAF0
:100EF00003FC224CA6462744019C234CA0463C59A7
:100F0000009D24EA0C0405FA03F3234347F8083054
:100F1000DEF800304F6843EA0604FD0358BF23EAB9
:100F20000604CEF80040BD03DEF8043043EA0604B0
:100F300058BF23EA0604CEF80440FD02DEF808306C
:100F400043EA060458BF23EA06040D4BCEF80840D6
:100F5000BD024FF003059C461B6843EA060458BFD8
:100F600023EA0604CCF8004009F104090AF1020A58
:100F7000013257E7001C02400000FEBF003C014068
:100F80000C3C01404438024008FCFFFF002A08BF27
:100F900009048161704700001C480068704700BF69
:100FA000B0B518B3044600684CF6CC43D4E901123E
:100FB000036045F25553036041608260FFF7ECFF28
:100FC00005462068C16889070BD0FFF7E5FF401B85
:100FD0003128F6D32068C06880071CBF0320B0BD4D
:100FE000EFE74AF6AA2101600020B0BD0120B0BDA4
:100FF00000684AF6AA210160002070471F48034993
:1010000000780A6810440860704700BFF0000020B4
:1010100080B50B48016841F400710160016841F43A
:1010200080610160016841F480710160032000F07B
:1010300079F8032000F006F800F022F8002080BDC7
:10104000003C024070B50D4E04464FF47A71307882
:10105000B1FBF0F080490968B1FBF0F000F0C2FA92
:1010600001250F2C08D838B94FF0FF302146002257
:10107000002500F031F87460284670BD080000209B
:1010800082B000200B4901904A6842F480424A60D5
:101090004A6802F480420192019A0090086840F088
:1010A00080500860086800F080500090009802B0FE
:1010B000704700BF40380240002809D4734600F052
:1010C000F5FA9E46034A42EAD00020F00300016090
:1010D000704700BF00E100E0F0B5184B4FF0FF365D
:1010E0001C68C4F30224E51E84F0070438BF002501
:1010F00006FA05F7BA43042C28BF042406FA04F4C0
:10110000A14300F00F04A940043C1143044A2344C6
:1011100009010244002848BF03F10C021170F0BD20
:1011200000E400E005494FF6FF030A681A4060F347
:101130000A22034810430860704700BF0CED00E02E
:101140000000FA0500F01EFC2DE9F041002857D000
:101150003F4B04468846D3F8000400F0070088425D
:1011600004D283F8008400F08BFA49D1206881070B
:1011700011D5410703D5996841F4E0519960010701
:1011800003D5996841F460419960A1689A6822F09A
:10119000F00211439960C0072BD100F071FA04D915
:1011A00083F8008400F06CFA2AD12068410705D545
:1011B000E1689A6822F4E05211439960000706D56D
:1011C0002069996821F4604141EAC00098601C469A
:1011D00000F046F8A1681F4AC1F30311515CC840F2
:1011E0001D4908601D480068FFF72CFF0020BDE87E
:1011F000F0816068811E022905D21968890107D42F
:101200000120BDE8F08101281DD119688903F7D5B7
:1012100099681D4621F0030108439860FFF7BCFE62
:10122000064641F288376068A9682B4601F00C0138
:10123000B1EB800FB1D0FFF7AFFE801BB842F2D9FF
:101240000320BDE8F08119688907D9D5E0E700BF20
:101250000038024080370008140000200C000020F5
:1012600010B5134C606800F00C011248082903D037
:1012700004291CD1104810BD2168236801F03F02E9
:1012800021685B02C1F3881105D4A1FB0001002392
:10129000FEF796FF03E008484843B0FBF2F02168F0
:1012A0000222C1F3014102EB4101B0FBF1F010BD9C
:1012B000043802400024F40000127A002DE9FC41B9
:1012C000002860D004460078C34EC0070BD0B06839
:1012D00000F00C00042840F08F803068800302D5B5
:1012E000606800284FD02078800718D5B06810F0CB
:1012F0000C0F07D000F0F9F940F0968070684002BA
:1013000000F192803068800702D5E06801283AD168
:101310002069316821F0F80141EAC000306020788E
:10132000000733D42078400743D4A76947B300F0BF
:10133000DCF940F0AA80012F25D0E169706800F443
:1013400080028A421FD1216A00F03F028A421AD1EC
:1013500047F6C071626A0140B1EB821F13D1A16AE6
:101360004FF6FF72C903914300F44032A1F580317A
:101370008A4208D1E16A00F07060B0EB016F02D1DF
:101380000020BDE8FC810120BDE8FC816169934833
:1013900000296AD00121C0F8801EFFF7FDFD054637
:1013A000706F8007BED4FFF7F7FD401B0228F7D906
:1013B000C9E0306C10F080580AD100200190306CE8
:1013C00040F080503064306C00F080500190019803
:1013D000834F3868C0053AD4386840F4807038606C
:1013E000FFF7DAFD05463868C00530D4FFF7D4FDB5
:1013F000401B0228F7D9A6E000F077F903D1706806
:1014000040023FF56AAF6068B0F5803F07D0B0F5A5
:10141000A02F40F08280306840F480203060306837
:1014200040F48030306082E0E06800284CD06B48A7
:1014300001210160FFF7B0FD0546306880073FF5E8
:1014400067AFFFF7A9FD401B0228F6D97BE0A06833
:10145000012805D0052848D1306F40F004003067DE
:10146000306F40F00100306749E00021C0F8801E75
:10147000FFF792FD0546706F80077FF553AFFFF7CA
:101480008BFD401B0228F6D95DE0544900208846B8
:101490000866FFF781FD0546022F0AD147463068EE
:1014A000800153D5FFF778FD411B03200229F6D9AF
:1014B00067E7306880017FF563AFFFF76DFD411B83
:1014C00003200229F5D95CE7444800210160FFF7B9
:1014D00063FD0546306880077FF521AFFFF75CFDAF
:1014E000411B03200229F5D94BE7316F002821F079
:1014F00001013167316F21F00401316745D0FFF7F9
:101500004BFD054641F28837306F80074CD4FFF71A
:1015100043FD401BB842F7D915E03168002821F49B
:1015200080313160316821F48021316045D0FFF78E
:1015300033FD0546306880033FF5D5AEFFF72CFD3F
:10154000401B6428F6D90320BDE8FC811C341FCC65
:101550000843D90340EA82104FF6FF72914340EAF4
:101560000460A1F580310843706001203866FFF700
:1015700013FD0446306880013FF502AFFFF70CFD14
:10158000011B03200229F5D9FBE6FFF705FD0546FF
:1015900041F28837306F800706D5FFF7FDFC411B0D
:1015A0000320B942F6D9ECE6B8F1000F7FF4BDAEE6
:1015B000306C20F080503064B7E6FFF7EDFC054654
:1015C000306880037FF58FAEFFF7E6FC411B0320F8
:1015D0006429F5D9D5E600BF003802400000474233
:1015E00000700040411E0020B0EB116F1CBF0120B5
:1015F0007047044AF023516003490B700721906043
:101600001160704710E000E023ED00E0FEE700000D
:1016100080B5054805490160FFF71FFB18B1EFF3DE
:10162000108072B6FEE780BD30000020003002401E
:1016300010B5034C0348611CFEF76BFE207010BD13
:10164000600000201800002080B5CC48074B4FF404
:101650007A610322C0E900328160FFF7A1FC18B172
:10166000EFF3108072B6FEE780BD00BF003000408F
:10167000FEE7FEE7026802EB0112D2F8BC217047D8
:10168000D3F8000400F00700404570474CF250309A
:10169000FEF75EBF284601F0A6BE042200F0DBB9CB
:1016A000026802EB0112D2F8B821704700F01F0166
:1016B0000122C0B202FA01F17047207D00F07F00E4
:1016C00020757047204601F0C9BC012301254078F0
:1016D00000F05ABF0B2201F07FBE606A40F4003078
:1016E0006062052084F820007047B06800F00C00AC
:1016F0000828704700F1240101204FF48022704730
:1017000094F91400B0F1FF3F7047016841F0010106
:101710000160FFF741BC2046002100F01DBD0446DA
:1017200001F0A8BF4FF40071FEF794BD002201F054
:10173000E1B9314601F092BC70477047F0B58BB00B
:1017400002AC0E460746202115462046FEF782FDD4
:101750000695029736B12DB104F1180031462A469C
:10176000FEF75FFD084804F1180201AB2146FEF7C1
:101770002CFF30B1054820220068406802A900F023
:101780006AF90BB0F0BD00BF3800002070000020E7
:10179000FFF734BCB0B592B0002414210A94CDE90F
:1017A000084401A8FEF756FD22480094022501686E
:1017B00041F080510160006800F080500090009876
:1017C00000941D48016841F480410160006800F404
:1017D000804000900720109511904FF4A8700F9052
:1017E00008200E904FF48000CDE90C5001200B90A2
:1017F0004FF48030079009200690009806A8FFF764
:101800005DFD18B1EFF3108072B6FEE74FF4A05003
:10181000CDE902540521CDE904000F20019001A873
:10182000FFF792FC18B1EFF3108072B6FEE712B02A
:10183000B0BD00BF4038024000700040024801685F
:1018400041F470010160704788ED00E025480021F7
:1018500001700078704700BF032907D80846DFE809
:1018600000F00602070A40F2F64006E00420704746
:101870004FF4007001E04FF400301060002070471A
:10188000F0B53948374CA6468446451C00277646B5
:10189000AE4209D2D6F80042601C05D0944208BF7F
:1018A000374606F50176F3E766456046C4BF01207A
:1018B000F0BD002F18BF3E460027B7F5007F04D0CB
:1018C000F059C043C8510437F7E701323944013BAE
:1018D00004BF0020F0BDD9E7024800210170007864
:1018E000704700BF100000202DE9F04798461D4BBF
:1018F0001D4C91460E461F461846D0F80012013185
:1019000006D0A0422BD807F5017700F50170F4E767
:1019100006F500700021802904D056F821201AB95C
:101920000131F8E7064612E09A460025B5F5007F3A
:1019300007D07059C1433846FEF778FD04370435A7
:10194000F4E738464946FEF771FD2E44534609F147
:101950000109B8F10108CED10020BDE8F0870120CF
:10196000BDE8F08700000408FFFF0D08FEE7000057
:1019700080B50248FFF73CFB014880BDC400002051
:10198000711900080648BFF34F8F064A016801F439
:10199000E06111430160BFF34F8F00BFFDE700BF5F
:1019A0000CED00E00400FA05E0B5002101220191F0
:1019B00001A900F039F80199002808BF4FF0FF3164
:1019C00008468CBD1CB50C46019101A9012200F00E
:1019D00042F8012818BF4FF0FF3420461CBD40B12B
:1019E000D0E901128A4291BF881A891AC068084456
:1019F000704700207047B0B5012812DB0546012072
:101A00001021FEF732FC60B1044628460121FEF7A2
:101A10002CFCC4E90000C4E9020518B9204601F015
:101A200051FE00242046B0BD70B583680024A24258
:101A30000ED04568AB420AD013F8015B0D5505681E
:101A4000C6682E44B34208BF2B460134EFE7224656
:101A50008360104670BDF8B5C76814460E4605464B
:101A6000FFF7BDFF381AA042DCBF0020F8BD69684F
:101A70000020A042A4BF6960F8BD325C01F8012BD0
:101A80002A68EB681344994208BF11460130F0E719
:101A900070B50D46064601201821FEF7E6FB80B121
:101AA000044636B13046FFF7A6FF07492060E160E3
:101AB00038B13DB12846FFF79EFF044960602161BF
:101AC00000B90024204670BDA9190008C5190008F6
:101AD0002DE9FC41054614201C4690460E4601F0B7
:101AE00019FE0190A8B10746046180E86001FFF784
:101AF00053FA20441C4CF860206820B94FF4206051
:101B0000FFF779FF206001A9FFF7C7FD0198BDE845
:101B1000FC810020BDE8FC811CB5134C0020019025
:101B20002268F2B1104601A90422FFF77DFF0146A9
:101B30000198B1B1A8B1FFF72FFA0199CA68904294
:101B40000AD30A6872B14868904758B1FFF724FA7F
:101B500001990A691044C860206801A9FFF79DFD3A
:101B600001981CBD00201CBDB00000202DE9F043F1
:101B7000ADF2744D30498FA8012200F029FD0028F4
:101B800056D103A82DA1012200F048FD00284AD11A
:101B90000124062C07D0FFF7EBFE20460121FEF7BB
:101BA000D9FB0134F5E7284803AE02AF01AC00F5DC
:101BB0008048814645460698099981420ED0FFF734
:101BC000D7FE304639460422234600F041FE78BB5A
:101BD00002992846FEF72AFC0435ECE703A800F03A
:101BE000E3FC01200121FEF7B5FB184D48464146B4
:101BF0004E46A84709F104004FF46041A8475D4CE8
:101C000041464FF460422046FFF715F8014609F1BE
:101C10000800A847204649460322FFF70CF8014672
:101C200009F10C00A84704490020092200F0D0FC6B
:101C30000DF2744DBDE8F0831E3900084C34303588
:101C40002E62696E00000000004000082D040008AC
:101C500070B58AB00D4C40014901009058010291C5
:101C60006946256803905001019005F10E006E1C35
:101C700005903F48266000240126CDE906440994DA
:101C800008960494FEF7ECFC0AB070BDC00000207A
:101C9000B0B58AB0344C2068B0B1006869462822DB
:101CA000FFF7C2FE00285CD0304800210160009898
:101CB000A038072855D8DFE800F0042932345454FE
:101CC000544CFFF73FFA4CE04FF448604FF4486142
:101CD000FFF7DEFE2060A0204FF4FE61A0224FF44B
:101CE000FE63FFF7B5FF224D02212846FEF75AFC9E
:101CF00028460121FEF756FC2846FEF755FF1D48F1
:101D00001D490322FEF797FFE0602AE008980121B1
:101D1000FEF720FB44F8080FA42021461EE0089897
:101D200015E0A16831B960680899FEF77FFBA168EA
:101D30000143A16060680430606039B90999FEF719
:101D400075FB0146D4E901021143A16004306060D3
:101D500007E0049828B904F10801A4200822FFF73D
:101D6000EDFC06480AB0B0BD700000202C00002039
:101D70003800002030000020107AFF1F911C00085E
:101D800000487047811D0008B0B504464FF0FF3091
:101D900060630020E070204601F025FB08B10420BC
:101DA000B0BDB4F836024AF6552188421CBF032064
:101DB000B0BD94F83800E92805D0EB2816D194F886
:101DC0003A00902812D104F16E0001F0FFF9084D9D
:101DD00020F07F40A84207D004F18A0001F0F6F914
:101DE00005F14C51884201D10020B0BD0220B0BDA8
:101DF000464154000246107820B10132884208BFA3
:101E00007047F8E700207047F0B5684B00220024C7
:101E1000302A11D09D5865B10668B5420AD19D1887
:101E200087686E68BE4205D1AE684769BE4201D17F
:101E30000BE001241032EBE71222002C18BF002225
:101E4000881E18BF1046C0B2F0BD09B11020FAE7D5
:101E5000A889A0F58070B0FA80F040090001F2E78F
:101E600010B5524A00210023302B08BF10BDD458B2
:101E7000844208BFD1501033F6E700BF0268C36A3E
:101E8000490A5089B1FBF0F0191D0A6822B190424D
:101E900004D3801A0831F8E70020704749680844E5
:101EA0007047C2690239023A91422FBF0020026B8B
:101EB000408901FB002070472DE9F0410468884605
:101EC000074681B13846414601F0C8F802283CBFB8
:101ED0000120BDE8F081411C21D0E16945468842DE
:101EE00007D2BDE8F081256915B1E069854200D3CC
:101EF00001252E46E0690136864228BF022601D31D
:101F0000022D09D33846FFF714FC411CE9D050B12B
:101F10000128E6D0AE42EDD10020BDE8F0814FF0BF
:101F2000FF30BDE8F081204631464FF0FF3201F02E
:101F300076FA0146B8F1000F06D029B9204641468D
:101F4000324601F06CFA014631B10120012908BF87
:101F50004FF0FF30BDE8F081E16960692661023928
:101F600088429CBF01386061207940F001002071F7
:101F70003046BDE8F081000010B5411E022984BF43
:101F8000022010BD094A02EB01108389B3F5807469
:101F900018BF1C46002C18BF013C848120044FF060
:101FA000000004BF0901505010BD00BF8000002098
:101FB000F8B50C4606680021054600F061FAB8B98C
:101FC0000027E969304601F00EFA88B9286A0078DE
:101FD000E52800D028B90137A74204BF0020F8BD8A
:101FE00000E000272846012100F0B6F80028E8D0DC
:101FF000042808BF0720F8BD2DE9FE4FD0F800A047
:102000000021044600F03CFA08B1BDE8FE8F4FF015
:10201000FF3704F124054FF0FF0B4FF00D084FF090
:10202000FF092763E169504601F0DDF90028ECD192
:10203000266A3078002800F08880F27AE52802F0DD
:102040003F01A17103D0120709D50F2907D02763DB
:102050004FF0FF0BFFF75FFB0028E3D0D5E70F2918
:102060000AD194F82F104906F4D441061BD45FFA24
:102070008BF18842ECD11CE05FEA0B6004D1304662
:1020800001F080FA814563D094F82F00C007DED1BB
:102090000020295C325C0A2802D001308A42F8D044
:1020A0008A42D4D154E0616996F80D9000F0BF0BDC
:1020B0002163707B8145CBD1708B0028C8D1DAF8C1
:1020C0000C00CDF800904FF000090190307800F03E
:1020D0003F0000FB08F0A0F10D080120B9F10D0F41
:1020E0001FD0E64911F80910775A90B1B8F1FE0FE8
:1020F0001FD8384600F0BCFC0290019830F8180058
:1021000000F0B6FC0299814213D108F1010838466B
:1021100004E04FF6FF7087420BD1002009F101095E
:10212000DCE73178490607D530B1019830F818005E
:1021300010B14FF0FF0B01E0ABF1010BDDF80090A7
:102140004FF0FF374FF00D0884E70420BDE8FE8F05
:102150000020BDE8FE8F00BF2DE9F0470446C069AE
:1021600038B10F46616901F120060021B1EB565FDD
:1021700001D004270BE03546D4F800906FF35F25BB
:1021800045B109EB05006661002738302062F8B2DE
:10219000BDE8F087A1690130E06171B12F48B9F85D
:1021A0000A20104400F5C00010EA562FE9D1FFF7CD
:1021B00089FA022809D20227E9E7B9F80800B0EB4A
:1021C000561FDED80020E061D3E78046013020D0E2
:1021D000D9F81C00804507D248464146C4F818800B
:1021E000FFF75FFEE061CCE7002FEBD0A16920464E
:1021F000FFF762FE80460130032806D2184901EA43
:10220000C000184921FA00F7C1E7484601F00CFA6E
:1022100008B10127BBE709F13800FFF783FA484608
:102220004146FFF73EFE4FF0000A0127B9F80A10B9
:10223000C9F834008A450CD2484689F8037001F089
:10224000F3F90028A3D1D9F834000AF1010A0130CA
:10225000ECE7A0EB0A00C9F83400BDE7FFFF1F0060
:10226000F8FFFF00010702002DE9F04F87B0044698
:1022700090F82F0010F0A00F03D0062007B0BDE8A3
:10228000F08FD4F800B004F1240000270190DBF8AF
:102290000C0030F8171001370029FAD102A8019973
:1022A0000C2201F099F89DF81320D0077DD107F199
:1022B0000B000D21B0FBF1F0471C900758BF012720
:1022C00039462046FFF774FE0028D7D1B7F1010A3E
:1022D00051D06069A0EB4A11204600F0D1F80028E7
:1022E000CCD1019801F04EF9DFF8908181464FF68C
:1022F000FF76E169584601F076F80028BED1206AE1
:102300000F23DBF80C100D2500220027A0F80B305E
:102310005FFA8AF3428380F80D906B430D3BBFB2A6
:1023200018F80250B7421ABF31F8137001334FF654
:10233000FF77475317B10C2A04D105E00C2A4FF65A
:10234000FF7708D00132EAE7B74204D031F8131022
:102350000029514601D14AF04001017001200021BD
:102360008BF803002046FFF7F7FE00287FF486AFC6
:10237000BAF1010ABDD1E169584601F034F80028EC
:102380007FF47CAF206A2021FDF764FF206A019969
:10239000FFF7A0F994F82F10206A01F018010173DB
:1023A00001208BF80300002068E7334D40204FF0F8
:1023B000010A0DF11409009284F82F00BAF1640F9C
:1023C00051D00198DBF80C8002A9FFF783F9BAF12C
:1023D000060F514612D3B8F8000078B1102252B15E
:1023E00000F0010343EA4103090448BF6B40013A8E
:1023F00040081946F3E708F10208ECE70720062336
:102400001A4601F00F0303F13006392E88BF03F19D
:10241000370609F800600138531E0909F0D17E2102
:1024200009F8001000213AB1631893F82430202BEA
:1024300003D0013A0131F6E7014607289ABF19F89F
:1024400000200130202263180131082983F824205C
:10245000F3D32046FFF7D0FD10B90AF1010AADE72A
:10246000BAF1640F01D1072008E704287FF406AF12
:10247000009A84F82F201AE7211001001038000874
:102480002DE9F04104462448014202D00220BDE873
:10249000F081A768D4F800800D4661619FB1B8F85B
:1024A0000A004602B5421FD32046394600F0D6FD49
:1024B000074601302CD0022FE8D3D8F81C00874201
:1024C000E4D2AD1BEEE798F80000032803D3D8F858
:1024D0002C70002FE3D1B8F80800B0EB551FD5D908
:1024E000D8F82C00002703E040463946FFF7D9FC16
:1024F0000028C4E90670C9D000EB55206FF35F25B2
:1025000008EB05013831C4E907010020BDE8F0817E
:102510000120BDE8F08100BF1F00E0FF214A115CEF
:1025200009B10020704701211154111802EB8000FD
:102530004068097A02680846104700BF10B5194C78
:10254000231804EB800040681B7AD0F810C01846AE
:10255000BDE81040604700BFB0B5124D2C1805EB28
:1025600080004068247AD0F808C02046BDE8B0401A
:10257000604700BF0B4A111802EB80004068097ADF
:1025800042680846104700BFB0B5064D2C1805EB51
:1025900080004068247AD0F80CC02046BDE8B040E6
:1025A000604700BFB40000201CB5044600F0F9F9F4
:1025B00000B11CBD01A9204601F05CF80028F8D14B
:1025C0002069FFF7D9FC0028F3D1002020601CBD52
:1025D000FEB5054668461446CDE9001100F091FDB0
:1025E000002816D40C4901EB80077E6826B13046DE
:1025F000FFF736FC002030700DB10020287000205D
:102600007D602DB1012C03D101A802A9FFF78EF83E
:10261000FEBD0B20FEBD00BF680000202DE9F04F7D
:10262000ADF5117D909168B102F03F091546044661
:1026300090A881A94A4600F05DFA074640B1002003
:10264000206000E00927F8B20DF5117DBDE8F08F9C
:10265000DDF8048201A89099C8F80C00CDF8088232
:1026600082A800F073FB074668B99DF9370200287D
:1026700008D415F03E0118BF012182A8FFF7C4FB62
:10268000074600E0062719F01C0F15D00FB3042FE2
:102690000DD16E48002101F11002402A20D041588E
:1026A00000291146F7D182A8FFF7DEFD0746002F6B
:1026B000C5D149F0080919E0002FC0D19DF80E02DC
:1026C000C10600F1A2805FEA897149D5C00705D132
:1026D00046E09DF80E0210F0110F03D00727AEE779
:1026E0001227ACE75FEA497000F191805FEA097058
:1026F00036D500F004FD8A9E0546294606F10E00F7
:1027000000F03EFF06F11600294600F039FF2020B8
:102710003146F072404600F04DFD054600207083C2
:1027200098F80010032908BFB082F061012088F8F2
:102730000300ADB1D8F8346082A82946002200F029
:10274000DFFE074600287FF47AAF4046314600F0AE
:102750004AFE0746681E002FC8F810007FF46FAFCE
:102760008A9D00270021A562D8F83400606209F034
:10277000080049EAC00ABAF1010F88BF012182A806
:1027800000F0DEFC002820615ED04046294600F0C3
:1027900011FD0646A06005F11C0000F017FD84F84D
:1027A00014A0E762E060C4F8008027626775A76143
:1027B000834604F1300A4FF40071B8F80600A08097
:1027C0005046FDF747FD5FEA89607FF53CAF002783
:1027D000BBF1000F3FF437AFC4F818B0B8F80A00E7
:1027E0004502380615D1AB4513D92046FEF7A1FFA7
:1027F000064601300021ABEB050B022E38BF01214C
:102800004F00002808BF0127EBE7042717E7082738
:1028100015E70028E6617FF412AF5FEACB5011D0D4
:1028200040463146FFF73DFB70B100EB5B2251465D
:1028300001230127226298F80100FFF78DFE00288E
:102840007FF4FDAE0027FEE60227F8E680000020B8
:102850002DE9FE4F044600200F469B4616461860A1
:1028600002A9204600F006FF0546002840F09680A9
:10287000657D002D40F09280207DC00701D10725A5
:102880008CE0E068A16904F13009401AB04238BF19
:10289000064602980190002E7AD008466FF35F201A
:1028A00058B1C0F5007509EB00013846B54228BFA4
:1028B00035462A4600F090FD43E0019840890138F2
:1028C00000EA5128B8F1000F01D0E16911E029B107
:1028D000E06A28B12046FFF7D1FA04E0A16803E0DE
:1028E000E169FEF7EFFE0146022953D3481C53D09D
:1028F000E1610198FFF7D5FA00284BD000EB080AF8
:10290000750A29D0019A08EB05005189884288BFD1
:10291000A1EB08055078394652462B46FFF71CFEBE
:10292000D0BBFEF7EDFE0BDC206AA0EB0A00A8424C
:1029300006D207EB402049464FF4007200F04CFDF0
:102940006D02A069761B2F444119DBF80000A161DC
:102950002844CBF800009EE7226A524512D0FEF7C9
:10296000CFFE06DC01984946FEF7AFFEA8B9FEF798
:10297000A4FE019849465246012301254078FFF7FD
:10298000EBFD50B9A069C4F820A06FF35F2088E781
:10299000002503E0022500E0012565752846BDE815
:1029A000FE8FF8B56946FEF7BAFE0746D0BB207D1C
:1029B000410601D4002735E040B2009DB0F1FF3F51
:1029C00027DD00F09CFB616A0646FEF763FE0746C2
:1029D00040BBA76AF87A394640F02000F8722068B8
:1029E000A26800F0C4FDE16807F11C0000F0C8FD1A
:1029F00007F11600314600F0C3FD00207882012067
:102A0000E870284600F0CCFD217D01F0BF01217562
:102A1000F8BD226A687804F1300101230127FFF72D
:102A2000B3FD08B13846F8BDFEF747FEC9E7000020
:102A3000802800D2704719B1FF280BD900207047B9
:102A40000A4A00218029F9D032F81130834208D097
:102A50000131F7E7054901EB40006FF0FF01405AF3
:102A6000704701F18000C0B2704700BF1E380008F7
:102A700010B51F4A1D49B0F5805F38BF0A4611885E
:102A8000002930D081422ED85388043251FA83F481
:102A9000844207D80021B3F5807F38BFD9B202EB5A
:102AA0004102ECE71B0A082B1DD8DFE803F00509FB
:102AB0000E10121416181A00401A32F8100012E004
:102AC000411A01F00101401A0DE010380BE02038E6
:102AD00009E0303807E01A3805E0083003E05038E4
:102AE00001E0A0F5E35080B210BD00BFDE39000860
:102AF000223900082DE9F04F85B00F460021164617
:102B0000396000F0FEFA002815D4DFF8348205465B
:102B100008EB80004468A4B33C6006F0FE06207811
:102B200058B16078FFF726FDC10706D10EB1400706
:102B30002BD400256FE00B256DE000206570207020
:102B4000E8B2FFF7EBFCC1071DD10EB140071CD462
:102B5000204600210025FFF717F9022827D101AEF2
:102B600000253746402D12D0601990F8FA1121B196
:102B700000F5FF7000F02AFB00E0002001C71035CF
:102B8000F0E70C2547E0032545E00A2543E0002750
:102B900056F8275025B120462946FFF7F5F800E002
:102BA0000320022803D3791C032F0F46F0D30428F7
:102BB00001D101252FE001282CD8B4F84300B0F54D
:102BC000007F27D1B4F84EB0BBF1000F04D104F15F
:102BD0005C0000F0FBFA834694F84860C4F820B02B
:102BE000701EA670012815D894F84570781EB7FAA3
:102BF00087F16781384018BF01204909084309D18E
:102C000094F8490094F84A1040EA012A0007A4F811
:102C100008A004D00D25284605B0BDE8F08FB4F813
:102C20004B0018B904F1580000F0D0FAB4F846206F
:102C3000002AEFD00BFB06F101EB1A131344984264
:102C4000E8D3C01AB842E5D3B0FBF7F02B442A44CE
:102C50004FF0030923634FF6F673C4E90952861C4B
:102C6000984240F6F573E66138BF4FF0020998428A
:102C700098BF4FF00109B9F1030F0BD1B4F862000E
:102C800050EA0A00C6D104F1640000F09FFAE06245
:102C9000B00010E0BAF1000FBCD01144E162A0F620
:102CA000F671090B0E2991BF700006EB460100F08A
:102CB000010000EB510000F2FF10BBEB502FA9D335
:102CC0004FF0FF30C4E904008020B9F1030F2071F8
:102CD00028D1B4F86800012824D1691C204600F0EE
:102CE00082FBF8B900204AF655212071B4F836026B
:102CF000884217D104F1380000F068FA114988427F
:102D000010D104F5077000F061FA0F49884209D12B
:102D100004F5087000F05AFA606104F5097000F0DB
:102D200055FA206184F800900025B8F80000A561EC
:102D30000130A8F80000E0802046FFF791F86AE72C
:102D40006800002052526141727241612DE9F04FDA
:102D500089B00D460978D0F800A05C2906D02F294B
:102D600004D0DAF8181007E015F8011FC9B25C2981
:102D7000FAD02F29F8D0002181602978202908D2A3
:102D8000802180F82F10002109B0BDE8F04FFFF737
:102D900077BB089024300AF1380BAAA4079050465C
:102DA000D0F80C900026A85D20282AD35C2818D0E3
:102DB0002F2816D0FF2E00F034810121FFF738FEB6
:102DC000002800F02E8107467F2806D82046394685
:102DD000FFF710F8002840F0248129F8167001361A
:102DE000E1E706F1010815F808005C2801D02F285A
:102DF00002D108F10108F6E7CDF818B04FF0000B4A
:102E000005E0CDF818B006F101084FF0040B012ED3
:102E100005D0022E15D1B9F802002E2811D1B9F82B
:102E200000002E280DD1079A002029F816000B2843
:102E300014D0B0424FF0200138BF2E211154013080
:102E4000F5E7A9F10200002E00F0E88030F8161036
:102E50002E2901D0202905D1013EF4E7089C0BF171
:102E6000200BB6E0CDF804A04FF0000A4FF020325E
:102E7000079929F816A0C1F807204A600A6039F8B6
:102E80001A102E2901D0202902D10AF1010AF6E7F1
:102E9000BAF1000F18BF4BF0030B344626B130F8DF
:102EA0001410661E2E29F8D10820671E00220490F7
:102EB0000120029000200390002000904BF00301BD
:102EC00039F81A60202E03D02E2E05D1574508D090
:102ED0000AF1010A8B46F3E7002E54D00AF1010AE9
:102EE00000E0A24604998A4237D0A24534D0802E11
:102EF00005920DD330460021FFF79AFD20B15449C9
:102F0000084410F8806C00E00026059A4BF0020B94
:102F10002EB150A03146FEF76DFF059A40B14BF03F
:102F2000030B5F2608981044013280F82460C5E73F
:102F3000A6F1410080B2192803D8039840F002009E
:102F400008E0A6F1610080B21928EBD80398203E72
:102F500040F001000390E5E7A2460098C00710D1B9
:102F6000A24518BF4BF0030B0DD803980822A246C8
:102F7000800003900B20049000200290012000901C
:102F80009CE74BF0030B0799089CDDF804A0087838
:102F9000E52804BF0520087002980399C00718BFF0
:102FA000890001F00C00C9B20C2803D001F0030223
:102FB000032A01D14BF0020B5FEA8B7209D401F0B6
:102FC0000301012908BF4BF0100B042808BF4BF088
:102FD000080B204684F82FB0FFF70EF894F82F1056
:102FE00040B1DDF818B004281CD188061DD548076B
:102FF00010D520E0DDF818B048071FD4A079C0062E
:103000001ED560696FF35F200BEB0001504600F0A6
:10301000D1F8A060206845440AA4C1E60020A9F8C0
:103020000000062009B0BDE8F08F48074FF004000B
:1030300058BF0520F6E7802084F82F000020F1E734
:103040000520EFE7222A3A3C3E3F7C7F000000004B
:10305000903700082B2C3B3D5B5D0000F8B5022942
:103060002DD305680C46E869884228D928780328BA
:1030700027D0022835D0012821D1A86A04EB5407B3
:1030800000EB5721FEF706FB88BB7E1C6FF35F2722
:10309000E81990F83870A86A00EB5621FEF7FAFAA2
:1030A00028BB6FF35F26A81990F83800E20747EABB
:1030B000002108466FF31F3018BF0809F8BD012032
:1030C000F8BDA86A00EBD411FEF7E4FA78B904F071
:1030D0007F0005EB8000383000F078F820F0704079
:1030E000F8BDA86A00EB1421FEF7D4FA10B14FF036
:1030F000FF30F8BDE0B205EB4000008FF8BD0020C6
:10310000704710B50268BAB10023D15C202911D3F1
:103110003A2901D00133F8E71178A1F13004092CE4
:103120000AD8012B4FF0FF3108BF002C06D1D1186F
:1031300001310160002101E04FF0FF31084610BD70
:10314000F0B51B4B046800221D1D032A0ED055F854
:10315000046CA64207D186682F68B74203D146693E
:103160006F68B74216D010350132EEE703F108055B
:103170000022032A13D055F8086C16B1103501321D
:10318000F7E745F8084C0024AC808468406945F8AE
:10319000044C286003EB0210838911B11BB100209D
:1031A000F0BD591C01E04FF480718181501CF0BDCD
:1031B000800000200246488B1278032A05D10A7D40
:1031C000497D090641EA024108447047006870479A
:1031D00086B06F4D71486F4E6F4C05F58048814643
:1031E000706CC00026D5286828B9686818B9A86826
:1031F00008B9E868E0B1FEF70BFA20462946032239
:10320000FDF719FDE968884214D1D5E9001220467E
:10321000FDF711FDA96888420CD12F68FEF714FA5A
:10322000C9F80070386880F3088878688047D7E765
:103230004746F3E7FDF7ECFEFEF7ACFA4FF0000867
:103240004FF4404101224FF4404A4FF00109CDF8BC
:103250001480CDF80080306840F0040030603068A1
:1032600000F0040000900098CDF80080306840F035
:1032700080003060306800F0800000900098CDF849
:103280000080306840F002003060306800F00200DA
:1032900000900098424800F5D03705463846FDF7C3
:1032A00075FE05F5CE354FF4404100222846FDF766
:1032B0006DFE4FF0110BCDE903883846CDE901AB27
:1032C00001AEDFF8E0A03146D04703203146CDF80B
:1032D0001490CDE90390022002904FF40060019019
:1032E0002846D0474FF480403146CDF81080CDE9D4
:1032F000029801902846D0474FF400403146CDF85F
:103300001080CDE902B801902846D047FEF790F929
:1033100023484FF480114FF42022062344F8080F6D
:103320004FF48070A0834FF00120C4E90138C4E954
:103330000382C4E905102046FDF757FB18B1EFF3EF
:10334000108072B6FEE7FEF763F9FEF77DF91648C6
:10335000184C16A200210023A047174817A20021ED
:103360000023A047174818A200216423A047194C46
:10337000FEF7D2FB20680028FAD0FDF70DFE216889
:103380008842F5D9FEF7F2FBFDF7DCFEF0E700BF5F
:1033900000400008303802403000002008ED00E016
:1033A00000680040F50D0008811D000863616E543F
:1033B00078000000D11A0008911C000863616E5269
:1033C00078000000711900087761746368646F67A2
:1033D000000000002C00002011F8013B013A00F829
:1033E000013BF9D17047B0B50546406B884204BF38
:1033F0000020B0BD28460C4600F016F900B1B0BD63
:10340000687805F1380122460123FFF7A5F8002866
:1034100018BF4FF0FF346C6318BF0120B0BD2DE919
:10342000F84302293ED30546C0690E46884239D981
:1034300028781446032838D002284CD0012831D1EE
:10344000A86A06EB560700EB5721FEF723F9002880
:103450004FD116F0010907F101066FF35F2705F15F
:1034600038080FBFE0B218F8070000F00F0064F34F
:103470000B1008F8070001202F4607F8030FA86A71
:1034800000EB5621FEF706F998BB6FF35F26B9F102
:10349000000F30D118F80600C4F3032100F0F0004B
:1034A00008442AE00220BDE8F883A86A00EBD611A0
:1034B000FEF7F0F8E8B906F07F0005EB800000F1B8
:1034C00038063046FFF782FE0146304664F31B01A2
:1034D00000F056F809E0A86A00EB1621FEF7DAF8CA
:1034E00038B9F0B205EB40000487EF1C01203870BA
:1034F0000020BDE8F883C4F3071008F80600F5E7DC
:10350000F8B5022931D3056804460E46E8698842B9
:103510002BD9F2B1114628464FF0FF32FFF77FFF5B
:10352000B8B1F8BD012F20D0284631460022FFF760
:1035300076FF0028F5D1E8696969821E914205D2BB
:1035400001316961297941F00101297187423E46C3
:1035500009D22046FEF7EDF80746013004BF0120EE
:10356000F8BD002FDED10020F8BD0220F8BD4A834F
:103570000078032803D1100E4875100C08757047A9
:103580000160704710B500210022D2B2435C0131C6
:10359000540844EAC2120B291A44F6D1D0B210BD25
:1035A000B0B5044600F040F800B1B0BD2078032863
:1035B0002DD1207901282AD104F13C004FF4FD716E
:1035C000FCF748FE1648254645F8380F154855F8CB
:1035D000241CC5F8E4014AF65520A5F8FE0105F5BE
:1035E000F470FFF7CDFF55F8281C05F5F670FFF7CE
:1035F000C7FF55F8140C29460123421C15F8370C57
:1036000045F8042CFEF7C0FF002005F8340C607864
:1036100000210022FEF792FF002818BF0120B0BD54
:103620005252614172724161F8B50446C078F0B1FE
:10363000656B04F1380660780123012731462A467C
:10364000FEF7A2FFA0B9A16A206A0027E770691AF5
:1036500081420DD2A778022F09D3206A3146012377
:10366000054460782A46FEF78FFF013FF3E7002705
:103670003846F8BDB0B50C4680B10546006868B163
:10368000017859B1C188AA888A4207D14078FEF7EB
:1036900071FFC00702D12968002001E00021092044
:1036A0002160B0BD02E008C8121F08C1002AFAD18B
:1036B00070477047002001E001C1121F002AFBD1B2
:1036C0007047000010B5002821D0114B0022001FC8
:1036D000196803E0814203D80A4649680029F9D1F4
:1036E00052B11368841A9C4204D1006818441060D7
:1036F000104602E0506000E0186039B102680B1A11
:10370000934203D10B681A4402604968416010BDBE
:1037100000000020F0B50B30154D20F0070100240B
:10372000144A0FE003688B420BD38B4205D95E1A13
:1037300043184768C3E9006700E04368136002C0AC
:1037400004E0021D10680028ECD12046002802D1B8
:10375000286808B10020F0BD064A07481060074AF3
:10376000121A22F00702C0E9002401202860D7E7DE
:103770000400002000000020FC000020F880002051
:103780000000000000000000010203040607080911
:1037900043554541414141434545454949494141D9
:1037A0004592924F4F4F5555594F554F9C4F9E9FA5
:1037B00041494F55A5A5A6A7A8A9AAABACADAEAFE8
:1037C000B0B1B2B3B4414141B8B9BABBBCBDBEBFE0
:1037D000C0C1C2C3C4C54141C8C9CACBCCCDCECF7C
:1037E000D1D145454549494949D9DADBDCDD49DFD5
:1037F0004FE14F4F4F4FE6E8E85555555959EEEF19
:10380000F0F1F2F3F4F5F6F7F8F9FAFBFCFDFEFF40
:1038100001030507090E10121416181C1E00C7001C
:10382000FC00E900E200E400E000E500E700EA0057
:10383000EB00E800EF00EE00EC00C400C500C9009A
:10384000E600C600F400F600F200FB00F900FF00FD
:10385000D600DC00F800A300D800D7009201E100F8
:10386000ED00F300FA00F100D100AA00BA00BF0099
:10387000AE00AC00BD00BC00A100AB00BB009125B8
:103880009225932502252425C100C200C000A9006D
:103890006325512557255D25A200A5001025142577
:1038A00034252C251C2500253C25E300C3005A2582
:1038B000542569256625602550256C25A400F00057
:1038C000D000CA00CB00C8003101CD00CE00CF002F
:1038D00018250C2588258425A600CC008025D3003A
:1038E000DF00D400D200F500D500B500FE00DE00F8
:1038F000DA00DB00D900FD00DD00AF00B400AD0050
:10390000B1001720BE00B600A700F700B800B00055
:10391000A800B700B900B300B200A025A000303A5B
:1039200000007D1D0100632C001E9601A01E5A019F
:10393000001F0806101F0606201F0806301F080675
:10394000401F0606511F0700591F521F5B1F541FBF
:103950005D1F561F5F1F601F0806701F0E00BA1FF5
:10396000BB1FC81FC91FCA1FCB1FDA1FDB1FF81FD1
:10397000F91FEA1FEB1FFA1FFB1F801F0806901F8D
:103980000806A01F0806B01F0400B81FB91FB21F09
:10399000BC1FCC1F0100C31FD01F0206E01F020680
:1039A000E51F0100EC1FF21F0100FC1F4E2101006A
:1039B000322170211002842101008321D0241A05B4
:1039C000302C2F04602C0201672C0601752C02019B
:1039D000802C6401002D260841FF1A0300006100BD
:1039E0001A03E0001703F8000703FF000100780145
:1039F0000001300132010601390110014A012E0196
:103A00007901060180014D0043028101820182019A
:103A10008401840186018701870189018A018B0164
:103A20008B018D018E018F01900191019101930114
:103A30009401F60196019701980198013D029B01BE
:103A40009C019D0120029F01A001A001A201A201F1
:103A5000A401A401A601A701A701A901AA01AB0124
:103A6000AC01AC01AE01AF01AF01B101B201B301D4
:103A7000B301B501B501B701B801B801BA01BB0185
:103A8000BC01BC01BE01F701C001C101C201C301FB
:103A9000C401C501C401C701C801C701CA01CB01E6
:103AA000CA01CD011001DD0101008E01DE0112010C
:103AB000F3010300F101F401F401F80128012202ED
:103AC00012013A020900652C3B023B023D02662CC2
:103AD0003F0240024102410246020A0153024000F5
:103AE00081018601550289018A0158028F015A021B
:103AF00090015C025D025E025F029301610262025C
:103B000094016402650266026702970196016A02E7
:103B1000622C6C026D026E029C01700271029D01AA
:103B2000730274029F0176027702780279027A02A8
:103B30007B027C02642C7E027F02A601810282024B
:103B4000A9018402850286028702AE014402B10106
:103B5000B20145028D028E028F0290029102B701DE
:103B60007B030300FD03FE03FF03AC030400860395
:103B7000880389038A03B1031103C2030200A3036C
:103B8000A303C4030803CC0303008C038E038F0339
:103B9000D8031801F2030A00F903F303F403F50351
:103BA000F603F703F703F903FA03FA0330042003DB
:103BB00050041007600422018A043601C1040E017A
:103BC000CF040100C004D0044401610526040000B4
:103BD000F03B00080000002030000000A436000880
:103BE000203C000830000020C8C00000B4360008A7
:103BF00000000000000000000100000010000000B4
:103C0000010000000024F4004D180008D918000835
:103C100081180008E918000859180008B80B0000BE
:040000050800018965
:00000001FF
